:020000040000FA
:1000000002115FA2029290A2029280AD40AC3F7FAB
:100010000A7E0012172F12001DA202B322E59120C2
:10002000E2FB220210CF7597A522220214ADAD0784
:10003000AC06900074E0FAA3E0FBEA5480C413130A
:100040001354017005300102C322AF05AE04EA5417
:100050007FFCAD0312189022D2DE220211EE1200B4
:100060007053D87853DAFE121972E4900087F022A8
:10007000C2DE22021500121819C290C296C280E494
:10008000FBFD7F1012195912053174A4F0D2AF1282
:100090001787D2969000ECE004F070069000EBE039
:1000A00004F09000EBE0B427E9A3E0B410E4C296BA
:1000B0001200263003091216F98E228F238006754E
:1000C0002201752300E5237004E522640170469047
:1000D00000DEE070061217880202959000EBE475CE
:1000E000F001120A5DFED3E5F09410EE9427400271
:1000F000D296D39000ECE094309000EBE0947550F1
:1001000003020295E4F0A3F09000DEF0900099F075
:10011000C2960202951217879000DEE014602A143E
:1001200070030202591470030202171470030202D2
:100130003024046003020295E52364AA60030202EE
:10014000959000DE04F0020295E523900099F0906E
:1001500000DE7402F0E523120B850201A0017FA1ED
:10016000018BA501A9A601BDA701C6A801DDA901B2
:10017000CCB001D5B1019DC00295FF0000020C1268
:10018000051EE490008AF07FA1806512054E900064
:10019000EA7408F0E4F52575240902029512054E6B
:1001A000E4F52575240202029590008A7401F07F1F
:1001B000A612163390007974A6F00202951205314A
:1001C00074A4F00202959000EA7408F09000DE74C6
:1001D00003F00202957FB112056202029512051E1C
:1001E00090008AE09000E9F090008A7401F07FA905
:1001F0001205627D307C757F017E001217F00202CD
:100200009512056B900079EFF0E48005E490009979
:10021000F09000DEF0807EE4F525E523F524E5246A
:10022000D39400402C12005E9000DE7404F08065D0
:1002300074032525F582E43400F583E523F00525D4
:10024000E525B52402800AE525C39470404775244E
:10025000709000DE7402F0803CE5236455703690A7
:1002600000DEF0C203900099E02460601B24FC6073
:100270001224FE600E14600B24F760101460042436
:100280001070127FA0121900D2038009900004E0C0
:10029000049000EAF0900099E0120B8502BEA103E1
:1002A00033A40377A50333A60447A802BEA9047CA0
:1002B000B004E5B1041EC00442FF000000B090008D
:1002C00086E030E73F7DC87C0012053F900099E052
:1002D0002457600E2408701F12056B7FA31215E9C6
:1002E00080159000E9E090008AF0900079E0FF121C
:1002F00016337FAB12057CE4900086F043DA01D21E
:10030000030200B012196A50207DE87C0312053FF9
:10031000900099E02457600C240860030200B07F2D
:10032000A20204D77FAA0204D71205744003020078
:10033000B0802E900086E030E71F900099E0245AAC
:10034000600F240260030204F17FA41215E9020485
:10035000F17FA612057C0204F1120574400302002D
:10036000B0121764C006C0071217739200D007D0EE
:10037000061205870200B09000DEE060030200B0C4
:1003800012178F7003020411240560030200B012DB
:100390000558900005E0FFA3E090008BCFF0A3EF9D
:1003A000F0900007E0FFA3E090008DCFF0A3EFF006
:1003B000900003E0FFA3E090008FCFF0A3EFF07B6D
:1003C000017A00798B9019CDE493FC740193FD9030
:1003D00019CFE493F52E12177F8E2FF5309019D296
:1003E000E493F53112177F8E32F5339019D5E493EB
:1003F000F53412177F8E35F5369019D8E493F5371A
:10040000A3E493F538753900753A09120F430200D9
:10041000B09000EAE07063C2807FA00204D7900031
:10042000DEE060030200B0900003E0FCA3E0FD7F8B
:10043000017E001217F0D29612001DC2967FA00214
:1004400004D77F030204D79000DEE060030200B00F
:1004500012178F6019240560030200B0120558902E
:100460000003E0FF7C007D041213E60200B0900060
:10047000EAE07006C2807FA0805D80619000DEE0CF
:1004800060030200B012178F60432405600302006E
:10049000B09000EAE014F012005E7E007F05C00616
:1004A000C007900003E0FB25E0FFE433FE74052F56
:1004B000F58274003EAD82FCEB25E0FFE52424FECE
:1004C000C39FFBD007D00612102E0200B09000EAA6
:1004D000E0700AC2807FA01218F30200B0E490001E
:1004E00087F00200B0900086E030E7107FB1121272
:1004F000F1E4900086F043DA010200B07E007FED67
:1005000012155340030200B0121764C006C0071250
:1005100017739200D007D006120D9D0200B07D32F5
:100520007C007F017E001217F0D29612001DC29649
:1005300022E490008AF07FA4121633900079227F83
:10054000017E001217F0D29612001DC296221200F0
:100550005E9000DE7404F0229000EAE014F01200D5
:100560005E22121633900079EFF022900079E0FFBE
:10057000121633227E007FED12155322900086E082
:10058000547FFD12159E228E268F27E4F528C3E5A1
:1005900027940AE52694005017E4F528E528120C64
:1005A0000D240BF8E4F60528E528B402EFC29022EA
:1005B00090008AE01470030206840460030207CAF4
:1005C0007808E6C4540FF97074D3E52794C2E52681
:1005D000940150030207CA3000030207CAE9120D52
:1005E00039E6540FFC08E6FDEC4E18F6ED08F61857
:1005F000E6FC08E6FDECC4540F120D39EC540F4E26
:1006000018F6ED08F6900001E526F0A3E527F0AE18
:1006100026FF7C007D1F120A08EF2401FFE43EFE46
:1006200090008BF0A3EFF07C007D031209F6A3EE9F
:10063000F0A3EFF0A3E526F0A3E527F0227808E683
:10064000C4540F640260030207CA120D72752C01B4
:10065000752D00752E8B901A0893FE7401938E2FC2
:10066000F530901A0AE493F531A3120C068E32F598
:1006700033901A0DE493F534901A11E493F535E4B0
:10068000FF0207CBE4F528120C23120C64FEEFC323
:100690009E4003020772120CA0120CFAF5828C83A2
:1006A0002FF582E43583120CCA300001B3500302E7
:1006B00007BE120C23120D93F9704D120CA0120CF0
:1006C00004F5828E83E493FF120CCE403B20003869
:1006D000E528C454F02402F582E4341A120CFAF529
:1006E000828C83EF540775F002120B79E493C313E5
:1006F000FE74019313FFC3E5279FE5269E40091270
:100700000C23120CE6E9804E120BF8F5828E83C0A2
:1007100083C082120CA0120C04F5828E83120C236B
:10072000120D93FFE5822FF582E43583F583E49380
:100730005407D082D08375F002120B79120CFCFDA5
:10074000AF27AE26121890E528501D25E025E012AF
:100750000CE6ECC4540F120D39EC540F4EFEEDFFB5
:10076000120C23120D308056120C0D240BF8E4F6F7
:10077000804C120C23120C646F7043120D72120B1A
:10078000F8AA06752CFF8A2DF52EE528120D7D128C
:100790000C048E2FF530E528120D03F531E52812F3
:1007A0000D88120C048E32F533E528120D12F53443
:1007B000E528120D21F535AF281207CB400C05288E
:1007C000E528C394025003020687228F29E4F536F8
:1007D000EF25E025E0240AF8E6701EEF25E025E08D
:1007E000240BF876087E007F707D007B017A00790B
:1007F00003120BABE490007AF0AB2CAA2DA92EC00B
:1008000001120BF12408F9E7540F2530F582E43585
:100810002FF583E493120C42D00112188650441233
:100820000BF12408F9E7540FFF2530F582E4352F4A
:10083000120CCA300101B34034EF700A900077E522
:100840002AF0A3E52BF0120BF1120CE6EC540F2466
:1008500001FFEFFEEC54F04EFEEDFF120BF1120D16
:1008600030800A120BF12408F874F056F6AB2CAA6B
:100870002DA92EC001120BF1120D42120C5D120DAA
:100880004E120C42D0011218865052120BF1120D6A
:1008900042120C5DFF120D4E5408FE120CD03001B6
:1008A00001B34043EF700A900088E52AF0A3E52BDE
:1008B000F0120BF1120C4E2401FFE433FEEFC4F8EA
:1008C000540FC868FFEEC454F048FEED540FFDEC21
:1008D0004EFEED4FFF120BF1120D30800A120BF19C
:1008E0002409F8740F56F6120BF1120CE6EC540FB3
:1008F000FB700F120C56700A120BD7240BF8E4F69B
:10090000C322120BF1240AF8E5351466700375361C
:1009100001C3E53195366B7020D290120BF124089B
:10092000F874F056F6740F0856120BF0240AF80605
:10093000120BF1240BF816804C120BF1120C4EFF27
:10094000C3E53495366F703DD290120BF12408F850
:10095000EC54F0FEED540FA60608120BF0240AF832
:1009600006120BF1240BF816120BF1120C7FE0FFAC
:10097000120BF1240BF8E6FE7401A806088002C3EE
:1009800033D8FC4FF0120BF1240BF8E67017120B62
:10099000F1120C7F120CF2FF1218A7EFF0120BF1FC
:1009A000240BF87608120BF1240AF8E6C3953540BB
:1009B000311219625005E4900085F0120CEF6018B6
:1009C0001219727D207C037F017E001217C7120D61
:1009D0005AA3E529F04480F0120BD7240BF8E4F673
:1009E000D322C322BB010689828A83F0225002F7F8
:1009F00022BBFE01F322EF8DF0A4A8F0CF8CF0A46F
:100A000028CE8DF0A42EFE22BC000BBE0029EF8D57
:100A1000F084FFADF022E4CCF875F008EF2FFFEE84
:100A200033FEEC33FCEE9DEC984005FCEE9DFE0F92
:100A3000D5F0E9E4CEFD22EDF8F5F0EE8420D21CED
:100A4000FEADF075F008EF2FFFED33FD4007985035
:100A500006D5F0F222C398FD0FD5F0EA22C5F0F8D2
:100A6000A3E028F0C5F0F8E582158270021583E056
:100A700038F022BB0110E58229F582E5833AF5833F
:100A8000E0F5F0A3E0225009E92582F886F008E6B7
:100A900022BBFE0AE92582F8E2F5F008E222E583AE
:100AA0002AF583E993F5F0A3E9932275F00875829E
:100AB00000EF2FFFEE33FECD33CDCC33CCC58233E8
:100AC000C5829BED9AEC99E58298400CF582EE9BED
:100AD000FEED9AFDEC99FC0FD5F0D6E4CEFBE4CD0B
:100AE000FAE4CCF9A88222B800C1B90059BA002DA5
:100AF000EC8BF084CFCECDFCE5F0CBF97818EF2F5E
:100B0000FFEE33FEED33FDEC33FCEB33FB10D7038C
:100B1000994004EB99FB0FD8E5E4F9FA227818EF35
:100B20002FFFEE33FEED33FDEC33FCC933C910D794
:100B3000059BE99A4007EC9BFCE99AF90FD8E0E4A1
:100B4000C9FAE4CCFB2275F010EF2FFFEE33FEED77
:100B500033FDCC33CCC833C810D7079BEC9AE89947
:100B6000400AED9BFDEC9AFCE899F80FD5F0DAE429
:100B7000CDFBE4CCFAE4C8F922A42582F582E5F0A5
:100B80003583F58322D083D082F8E4937012740108
:100B900093700DA3A393F8740193F5828883E47393
:100BA0007402936860EFA3A3A380DFEF4E6012EF9F
:100BB00060010EEDBB010B89828A83F0A3DFFCDEAE
:100BC000FA2289F05007F709DFFCA9F022BBFEFCEE
:100BD000F309DFFCA9F022C290E52925E025E024F5
:100BE00008F8E4F608F6E52925E025E0240AF8E40B
:100BF000F6E52925E025E022E528C454F02402F595
:100C000082E4341AF583E493FE7401932225E025EF
:100C1000E02408F8E4F608F6E52825E025E0240AB3
:100C2000F8E4F6E52825E025E022F583E493FF5477
:100C300008FE131313541F24FF9202AB29AA2AA9FA
:100C40002BEF540775F002A4F58285F08322240867
:100C5000F8E6FC08E6FDECC4F854F0C8EDC4540F07
:100C600048540F222408F8E6FEEEC4540FFFE5288E
:100C7000C454F02407F582E4341AF583E493222463
:100C80000AF8E614131313541F2403F582E4340006
:100C9000F58322E529252BF582E43528F583E0222A
:100CA000E528C454F02405F582E4341A22A200E4B5
:100CB00033C433333354804526FFE527900074CF87
:100CC000F0A3EFF0E490007BF022F583E493540866
:100CD000131313541F24FF22E52E25E0248BF582E5
:100CE000E43400F583222408F8E6FC08E6FD2290AF
:100CF0000085E0FF90007AE06F22F583E493FC74B6
:100D0000019322C454F0240AF582E4341AF583E4F2
:100D10009322C454F0240DF582E4341AF583E4934D
:100D200022C454F02411F582E4341AF583E49322AA
:100D30002408F8A60608A607222401FFEFC454F0F1
:100D4000FE222408F9E7C4F854F0C809E722253345
:100D5000F582E43532F583E4932290007AE0900046
:100D600085F053DAFE2225E0247DF582E43400F597
:100D70008322A200920185262A85272B22C454F0C3
:100D80002408F582E4341A22C454F0240BF582E4DA
:100D9000341A222408F8E6FEEEC4540F228E268F61
:100DA00027C3E527940AE52694005003020F3190EB
:100DB0000087E024FE6025147003020E3E240360C9
:100DC00003020F36C290AF27AE261218E540030289
:100DD0000F36120CAD9000877402F022120F3750BC
:100DE0003090007BE094044021D290E4900000F029
:100DF000900073F0C20490007CF090007AF09000B4
:100E000003F09000877403F08025E4900087F08061
:100E10001E900074E0547FFEA3E0FFD3E5279FE51A
:100E2000269E4005120CAD800690007BE004F090F9
:100E3000007BE0C394E05003020F36020F319000B4
:100E40007CE004F090007BE0FFA3E0D39F4003022E
:100E50000EDF7B007A007928AF27AE26121273408E
:100E600022900000E0FF120CDAE526F0A3E527F05F
:100E70008F28900000E004F0E0D394074005E49050
:100E80000087F030041DA200E433C43333335480B0
:100E9000FFE528C454F04FFF900073E0120C89EF77
:100EA000F08039900073E0FF120C89E0FEA200E4AC
:100EB0003333333354F84528FDEE4DF074032F12CD
:100EC0000C8B120CF2FF1218A7EFF0900073E004E5
:100ED000F0E0D394704005E4900087F0B204221251
:100EE0000F37504D1219625005E4900085F0120C36
:100EF000EF603A1219727D207C037F017E00121789
:100F0000C7120D5A900003E0FD900074E05480FF7A
:100F1000900000E0C454F04FFFED4F900003F090BC
:100F20000074E0547FF0900086E04480F0C290802E
:100F300000E4900087F022A2009201AF27AE2612B3
:100F4000002E228B298A2A892B8C2C8D2DE4F53DAD
:100F5000753E80F53BE53BC3952E5010E52D253BB6
:100F6000F582E4352C120FF3053B80E9E4F53BE50F
:100F70003BC395385057E53A253DF582E43539F5C0
:100F800083E0553E7019F53CE53CC39531502DE5A5
:100F900030253CF582E4352F120FF3053C80E9E45F
:100FA000F53CE53CC395345013E533253CF582E42C
:100FB0003532120C2A121022053C80E6E53EC3139E
:100FC000F53E7005053D753E80053B80A2E4F53B8E
:100FD000E53BC395375013E536253BF582E43535BF
:100FE000120C2A121022053B80E6C29090008774F2
:100FF00005F022F583E493FF5408FE131313541FE6
:1010000024FF9202AB29AA2AA92BEF540775F002FC
:10101000A4F58285F083120A73F54085F03F120033
:101020000322120A73F54085F03F120003228E2638
:101030008F278C288D298B2AD200C2018529828591
:101040002883E05488D394004003D38001C39201E5
:10105000E4F52BE52BC3952A505930010D120C9362
:10106000C4131313540124FF8002A20092028527A7
:1010700082852683C083C082120C93FFC45407D09C
:1010800082D0831210BC30010C120C93FF13131387
:10109000541F138002A2009202852782852683C0F6
:1010A00083C082120C935407D082D0831210BC05E7
:1010B0002B80A0C2909000877405F02275F0021278
:1010C0000B79E0F53FA3E0F540120003920022C047
:1010D000E0C0F0C083C082C0D075D000C000C001A5
:1010E000C002C003C004C005C006C007E598540391
:1010F000F545F45298E54530E0171219A79000DD48
:101100001216EEEFF09000DDE004F0E0B44002E4EF
:10111000F0E54530E12E9000E0E0D39400401A90D5
:1011200000DCE02446F8E6FF1219A49000DCE0049D
:10113000F09000E0E014F08002D2059000DCE0B412
:101140002002E4F0D007D006D005D004D003D002AE
:10115000D001D000D0D0D082D083D0F0D0E03212F5
:1011600019AD787FE4F6D8FD7581650211A90200FA
:1011700076E493A3F8E493A34003F68001F208DF3A
:10118000F48029E493A3F85407240CC8C333C4544F
:101190000F4420C8834004F456800146F6DFE48003
:1011A0000B010204081020408090136DE47E01932F
:1011B00060BCA3FF543F30E509541FFEE493A360D5
:1011C000010ECF54C025E060A840B8E493A3FAE430
:1011D00093A3F8E493A3C8C582C8CAC583CAF0A381
:1011E000C8C582C8CAC583CADFE9DEE780BEC0E0E1
:1011F000C0F0C083C082C0D075D000C000C001C0A4
:1012000002C003C004C005C006C007E5D85487F576
:1012100021F452D8E5F730E508E5F730E603121976
:10122000AF53F7DFE52130E708E5D930E0031219C5
:10123000AEE52130E008E5DA30E003121796E5214B
:1012400030E108E5DB30E0031219B0E52130E208B7
:10125000E5DC30E0031219B1D007D006D005D00488
:10126000D003D002D001D000D0D0D082D083D0F033
:10127000D0E0328E298F2A8B2B8A2C892DE4F52EF3
:10128000900000E0FFE52EC39F5064E52AAE297868
:1012900003CEC313CE13D8F9FDAC06E52AAE2978E8
:1012A00002CEC313CE13D8F92DFFEE3CCF2401CFCD
:1012B0003400AB07FA120CD8E0FEA3E0FFC39BEEAC
:1012C0009A50028004AE02AF03AA06AB07120CD8F4
:1012D000E0FCA3E0FDAF2AAE29121840500DAB2B65
:1012E000AA2CA92DE52E1209E4D322052E8091C344
:1012F00022AE07E4F526121863900000E0041213F2
:1013000062900000E0FFE526C39F50171216E0E050
:10131000547FFF12186A1216E0A3E0FF12186A0544
:101320002680DE900074E0547FFF12186A900074EB
:10133000A3E0121362E4F526900073E0FFE526C3F4
:101340009F5017740325261216BD0526E526541F47
:1013500070E61219A112199D80DE7F5512186A02DB
:1013600019A1FF12186A1219A112199D224200E553
:1013700000004200E100004200E700004200E300FC
:1013800000C183410086004100870041008A00417E
:10139000007900420001000042008800004200770E
:1013A0000000C104410073004100850041007A0043
:1013B0004100000048007D000000000000000041E6
:1013C0000076004100DD004100DF004100DB00410C
:1013D00000DC004100E0004100DA00C1054100DE10
:1013E0000041009900008F268C278D28EF120BFA00
:1013F000AA06F97BFFEF120CA2120CFAFDEF120CF9
:1014000070F52EEF120D7D120C048E2FF530EF12B9
:101410000D03F531EF120D88120C048E32F533EF07
:10142000120D12F534EFC454F0240EF582E4341A90
:10143000120C048E35F536EFC454F02410F582E416
:10144000341AF583E493F537EF120D21F53885272B
:101450003985283A020F43900076E0FDC4540F24EA
:1014600001FBE433FAED540FF96B7001EA603DE9DA
:101470007010E0C4540F2401FDE433FCED64044C0F
:10148000602A900076E0C4540FFD540F120D66EEF2
:10149000F0A3EFF0ED04C454F049900076F0E0FFC3
:1014A000C4540FC394044004EF540FF022C0E0C0B2
:1014B00083C082C0D075D000C004C005C006C0077C
:1014C00053C87F9000E5E0FEA3E0FF4E700353C8D1
:1014D000FB9000E11216B250099000E5E4F0A3F091
:1014E000800DC39000E6E09DF09000E5E09CF0D018
:1014F00007D006D005D004D0D0D082D083D0E0323F
:10150000C0E0C083C082C0D075D000C004C005C098
:1015100006C00753917F9000E7E0FEA3E0FF4E7006
:10152000035391FB9000E31216B250099000E7E4D8
:10153000F0A3F0800DC39000E8E09DF09000E7E09C
:101540009CF0D007D006D005D004D0D0D082D08374
:10155000D0E032AD07AC06ABDA900076E0FEC454C2
:101560000FFFEE540FFEB50702C32253DAFE9000C0
:1015700076E0FAEE120D66E0FFA3E08D828C83CF59
:10158000F0A3EFF0EA54F0FF900076E0044FF0543F
:101590000FC394044004E054F0F08BDAD322AE057C
:1015A000AD07E4FCFB7FAA12186AAF0512186AEEB9
:1015B000C454F02449F582E4341AF583E493FFEC33
:1015C000C39F500774082CFC0B80F4EB04FF121827
:1015D00065E4FCECC39B500974032C1216BD0C800F
:1015E000F27F5512186A0219A1AE07E4FDF5261222
:1015F0001863900001E0FEA3E0FF7C007D0A121654
:10160000CE9000011216D69000771216C99000777E
:101610001216D69000881216C99000881216D6E4C9
:10162000FD74032D1216BD0DBD03F67F5512186A09
:101630000219A18F26900079E0F5277E007F087DB2
:10164000007B007A007908120BAB7F0B1219AA43BA
:10165000DA011200587D0A7C007F017E001217F02B
:1016600012001DE4900087F0900086F0900099E54C
:1016700026F0900079F0AF2722AB07AA06E4F9F82C
:101680007F407E427D0FFC120AE7A804A905AA0646
:10169000AB077F207ED77D757C01120AE7C3E49FEC
:1016A000FFE49EFE22AB07AA06E4F9F87FE87E037A
:1016B000FD22E0FCA3E0FDC3EF9DEE9C22F582E459
:1016C0003400F583E0FF02186AE0FEA3E0FF120990
:1016D000F6EEFF02186AA3E075F00AA4FF02186A8A
:1016E000E52625E0248BF582E43400F58322E0240E
:1016F0009AF582E43400F583229000DDE0FF90004B
:10170000DBE0B507057E017F00229000DB1216EEBC
:10171000E0FD7C009000DBE004F0E0B44002E4F087
:101720009000DAE0FEEE4204E4F0AE04AF05228E53
:10173000418F428C438D44121679121919E54424C5
:10174000FA9000E8F0E54334FF9000E7F0AE41AFD7
:10175000427C007D0A120A089000E3EEF0A3EFF04D
:10176000439104229000EDE0FCA3E0FDEC547FFEE9
:10177000AF0522EC5480C4131313540124FF22A399
:10178000E493FE74019322E49000EBF0A3F0229026
:101790000087E024FB22ADFBACFCAFD953D9BFE4FA
:1017A000F5FAF5F98FD9C3EC948050157F0020939A
:1017B000027F01EFC433333354804CFEEDFF02143B
:1017C00057E4900076F0228E378F388C398D3A129C
:1017D00016A512168612190D9000E5E539F0A3E55D
:1017E0003AF09000E1E537F0A3E538F043C8042271
:1017F0008E288F298C2A8D2B1216A5121686121967
:10180000199000E7E52AF0A3E52BF09000E3E52826
:10181000F0A3E529F04391042212002A121979124B
:1018200019801219311219951218BE12194F121976
:101830003B12194512192512198712199902198E8E
:10184000C3ED9BF582EC9AF583D3E5829FE5839EF9
:10185000500FED2BFDEC3AFCD3EF9DEE9C50028037
:1018600001C3227FAA12186AAF06C2059000DFE00A
:10187000B42002E4F09000DFE02446F8A607E0047C
:10188000F0A3E004F022120A73FDACF0AF2BAE2AF5
:101890008F828E83AF05AE041218D4AB07AA06AFB1
:1018A00082AE83121840227E1DE4FDEF30E706254C
:1018B000E06EFF8004EF25E0FF0DBD08EE22AF884B
:1018C0005388AF758CA0758DCBEF5440FEEF54104C
:1018D0004E428822EF7802CEC313CE13D8F92401EA
:1018E000FFE43EFE22C3EF941EEE94004003D3803B
:1018F00001C322121900D203900079E0FF021633CF
:10190000AE071218637F5512186A0219A1AD07AC11
:1019100006ECF5CBAF058FCA22AD07AC06ECF5930C
:10192000AF058F9222C2DE75D90575F9FF75960154
:101930002275E34075E10175E20122E591540453FB
:1019400091FB429122758E5475892243885022E57D
:10195000C8540453C8FB42C82253984FEB4F4DF56F
:101960009822E5C8C320E201D322E591C320E20119
:10197000D32253C8FB53C87F2275A41175D4CF223C
:1019800075A54175D5772253F77F75DA302275E654
:101990009075A8B022E4F5A922439810223005FDE5
:1019A00022D299228F9922AF99228F8C2222222231
:1019B000222200230069043D0802080109000046B4
:1019C000008C1FA402080009010819B20319B8020B
:1019D00019BA0219BC020000001819BE0319C4028A
:1019E00019C60219C8020000001400230069043D52
:1019F0000802080109000046008C1FA40208000923
:101A0000010819EA0319F00219F20219F4020000A0
:101A1000001819F60319FC0219FE021A0002000050
:101A2000001400230069043D080208010900004673
:101A3000008C1FA40208000901081A22031A2802B8
:101A40001A2A021A2C02000000181A2E031A340255
:0A1A50001A36021A380200000014D2
:00000001FF
