:020000040000FA
:100000000210DEA2029290A2029280AD40AC3F7F2D
:100010000A7E001216AB12001DA202B322E5912047
:10002000E2FB2202104E7597A52222021429AD0789
:10003000AC06900074E0FAA3E0FBEA5480C413130A
:100040001354017005300102C322AF05AE04EA5417
:100050007FFCAD031217C622D2DE2202116D120000
:100060007053D87853DAFE1218F4E4900087F02227
:10007000C2DE2202147C121795C290C296C280E49E
:10008000FBFD7F101218DB12053174A4F0D2AF1201
:100090001703D2969000ECE004F070069000EBE0BD
:1000A00004F09000EBE0B427E9A3E0B410E4C296BA
:1000B0001200263003091216758E228F23800675D2
:1000C0002201752300E5237004E522640170469047
:1000D00000DEE070061217040202959000EBE47552
:1000E000F001120807FED3E5F09410EE94274002C9
:1000F000D296D39000ECE094309000EBE0947550F1
:1001000003020295E4F0A3F09000DEF0900099F075
:10011000C2960202951217039000DEE014602A14C2
:1001200070030202591470030202171470030202D2
:100130003024046003020295E52364AA60030202EE
:10014000959000DE04F0020295E523900099F0906E
:1001500000DE7402F0E52312092F0201A0017FA145
:10016000018BA501A9A601BDA701C6A801DDA901B2
:10017000CCB001D5B1019DC00295FF0000020C1268
:10018000051EE490008AF07FA1806512054E900064
:10019000EA7408F0E4F52575240902029512054E6B
:1001A000E4F52575240202029590008A7401F07F1F
:1001B000A61215AF90007974A6F0020295120531CF
:1001C00074A4F00202959000EA7408F09000DE74C6
:1001D00003F00202957FB112056202029512051E1C
:1001E00090008AE09000E9F090008A7401F07FA905
:1001F0001205627D307C757F017E0012176C020251
:100200009512056B900079EFF0E48005E490009979
:10021000F09000DEF0807EE4F525E523F524E5246A
:10022000D39400402C12005E9000DE7404F08065D0
:1002300074032525F582E43400F583E523F00525D4
:10024000E525B52402800AE525C39470404775244E
:10025000709000DE7402F0803CE5236455703690A7
:1002600000DEF0C203900099E02460601B24FC6073
:100270001224FE600E14600B24F760101460042436
:100280001070127FA0121882D2038009900004E03F
:10029000049000EAF0900099E012092F02BEA10339
:1002A00033A40377A50333A60447A802BEA9047CA0
:1002B000B004E5B1041EC00442FF000000B090008D
:1002C00086E030E73F7DC87C0012053F900099E052
:1002D0002457600E2408701F12056B7FA31215654A
:1002E00080159000E9E090008AF0900079E0FF121C
:1002F00015AF7FAB12057CE4900086F043DA01D2A3
:10030000030200B01218EC50207DE87C0312053F78
:10031000900099E02457600C240860030200B07F2D
:10032000A20204D77FAA0204D71205744003020078
:10033000B0802E900086E030E71F900099E0245AAC
:10034000600F240260030204F17FA4121565020409
:10035000F17FA612057C0204F1120574400302002D
:10036000B01216E0C006C0071216EF9200D007D0F8
:10037000061209810200B09000DEE060030200B0C6
:1003800012170B7003020411240560030200B0125F
:100390000558900005E0FFA3E090008BCFF0A3EF9D
:1003A000F0900007E0FFA3E090008DCFF0A3EFF006
:1003B000900003E0FFA3E090008FCFF0A3EFF07B6D
:1003C000017A00798B90194FE493FC740193FD90AE
:1003D0001951E493F52E1216FB8E2FF53090195417
:1003E000E493F5311216FB8E32F533901957E493EE
:1003F000F5341216FB8E35F53690195AE493F5371D
:10040000A3E493F538753900753A09120EC202005B
:10041000B09000EAE07063C2807FA00204D7900031
:10042000DEE060030200B0900003E0FCA3E0FD7F8B
:10043000017E0012176CD29612001DC2967FA00298
:1004400004D77F030204D79000DEE060030200B00F
:1004500012170B6019240560030200B012055890B2
:100460000003E0FF7C007D041213650200B09000E1
:10047000EAE07006C2807FA0805D80619000DEE0CF
:1004800060030200B012170B6043240560030200F2
:10049000B09000EAE014F012005E7E007F05C00616
:1004A000C007900003E0FB25E0FFE433FE74052F56
:1004B000F58274003EAD82FCEB25E0FFE52424FECE
:1004C000C39FFBD007D006120FAD0200B09000EA28
:1004D000E0700AC2807FA01218750200B0E490009C
:1004E00087F00200B0900086E030E7107FB1121272
:1004F00070E4900086F043DA010200B07E007FEDE8
:100500001214CF40030200B01216E0C006C007125A
:1005100016EF9200D007D006120D1C0200B07D32FB
:100520007C007F017E0012176CD29612001DC296CD
:1005300022E490008AF07FA41215AF900079227F08
:10054000017E0012176CD29612001DC29622120074
:100550005E9000DE7404F0229000EAE014F01200D5
:100560005E221215AF900079EFF022900079E0FF43
:100570001215AF227E007FED1214CF22900086E08C
:10058000547FFD12151A228F29E4F536EF25E02558
:10059000E0240AF8E6701EEF25E025E0240BF8764B
:1005A000087E007F707D007B017A00790312095577
:1005B000E490007AF0AB2CAA2DA92EC001120B6D8D
:1005C0002408F9E7540F120CA9120B8CD001121752
:1005D000BC503D120B6D2408F9E7540FFF120CA913
:1005E000120C96300101B34031EF700A900077E5AC
:1005F0002AF0A3E52BF0120B6D120CB52401FFEFCE
:10060000FEEC54F04EFEEDFF120B6D120CA0800AB2
:10061000120B6D2408F874F056F6AB2CAA2DA92EF7
:10062000C001120B6D120CC1120BD7120CCD120BA4
:100630008CD0011217BC5052120B6D120CC1120B50
:10064000D7FF120CCD5408FE120C98300101B340B4
:1006500043EF700A900088E52AF0A3E52BF0120B17
:100660006D120BC82401FFE433FEEFC4F8540FC829
:1006700068FFEEC454F048FEED540FFDEC4EFEED65
:100680004FFF120B6D120CA0800A120B6D2409F89B
:10069000740F56F6120B6D120CB5FB700F120BD0C7
:1006A000700A120B53240BF8E4F6C322120B6D24CC
:1006B0000AF8E53514667003753601C3E5319536E1
:1006C0006B7020D290120B6D2408F874F056F674FB
:1006D0000F0856120B6C240AF806120B6D240BF847
:1006E00016804C120B6D120BC8FFC3E53495366FA4
:1006F000703DD290120B6D2408F8EC54F0FEED54CE
:100700000FA60608120B6C240AF806120B6D240BB8
:10071000F816120B6D120BDEE0FF120B6D240BF8B6
:10072000E6FE7401A806088002C333D8FC4FF0121D
:100730000B6D240BF8E67017120B6D120BDE120C0A
:1007400052FF121829EFF0120B6D240BF8760812E5
:100750000B6D240AF8E6C3953540311218E45005B4
:10076000E4900085F0120C4F60181218F47D207C84
:10077000037F017E00121743120CD9A3E529F04430
:1007800080F0120B53240BF8E4F6D322C322BB01F2
:100790000689828A83F0225002F722BBFE01F322EF
:1007A000EF8DF0A4A8F0CF8CF0A428CE8DF0A42E6D
:1007B000FE22BC000BBE0029EF8DF084FFADF022BD
:1007C000E4CCF875F008EF2FFFEE33FEEC33FCEECF
:1007D0009DEC984005FCEE9DFE0FD5F0E9E4CEFDC2
:1007E00022EDF8F5F0EE8420D21CFEADF075F00895
:1007F000EF2FFFED33FD4007985006D5F0F222C3EE
:1008000098FD0FD5F0EA22C5F0F8A3E028F0C5F076
:10081000F8E582158270021583E038F022BB0110E2
:10082000E58229F582E5833AF583E0F5F0A3E0223D
:100830005009E92582F886F008E622BBFE0AE92580
:1008400082F8E2F5F008E222E5832AF583E993F5E0
:10085000F0A3E9932275F008758200EF2FFFEE33C5
:10086000FECD33CDCC33CCC58233C5829BED9AEC23
:1008700099E58298400CF582EE9BFEED9AFDEC998D
:10088000FC0FD5F0D6E4CEFBE4CDFAE4CCF9A88297
:1008900022B800C1B90059BA002DEC8BF084CFCE3C
:1008A000CDFCE5F0CBF97818EF2FFFEE33FEED33FA
:1008B000FDEC33FCEB33FB10D703994004EB99FBC1
:1008C0000FD8E5E4F9FA227818EF2FFFEE33FEEDAA
:1008D00033FDEC33FCC933C910D7059BE99A4007B7
:1008E000EC9BFCE99AF90FD8E0E4C9FAE4CCFB22CE
:1008F00075F010EF2FFFEE33FEED33FDCC33CCC897
:1009000033C810D7079BEC9AE899400AED9BFDECA1
:100910009AFCE899F80FD5F0DAE4CDFBE4CCFAE4E0
:10092000C8F922A42582F582E5F03583F58322D02B
:1009300083D082F8E4937012740193700DA3A39393
:10094000F8740193F5828883E4737402936860EF0E
:10095000A3A3A380DFEF4E6012EF60010EEDBB0199
:100960000B89828A83F0A3DFFCDEFA2289F050072C
:10097000F709DFFCA9F022BBFEFCF309DFFCA9F0BC
:10098000228E268F27E4F528C3E527940AE52694CE
:10099000005017E4F528E528120B98240BF8E4F62C
:1009A0000528E528B402EFC2902290008AE0147076
:1009B00003020A75046003020B527808E6C4540F60
:1009C000F9706BD3E52794C2E52694015003020B1E
:1009D00052300003020B52E9120C38E6540FFC08A7
:1009E000E6FDEC4E18F6ED08F618120C2FEC540F3D
:1009F0004E18F6ED08F6900001E526F0A3E527F085
:100A0000AE26FF7C007D1F1207B2EF2401FFE43EFB
:100A1000FE90008BF0A3EFF07C007D031207A0A3F3
:100A2000EEF0A3EFF0A3E526F0A3E527F022780887
:100A3000E6C4540F64026003020B52120CF1752CD1
:100A400001752D00752E8B90198A93FE7401938E7B
:100A50002FF53090198CE493F531A3120BC18E322F
:100A6000F53390198FE493F534901993E493F535A9
:100A7000E4FF020587E4F528120BAE120D12FFE524
:100A800028120C5AF9EFC399506EE528120C1CF588
:100A9000828C832FF582E43583F583E493FF120C77
:100AA00096300001B35003020B46E528C454F024ED
:100AB00084F582E43419120C26F5828C83EF5407F6
:100AC00075F002120923120C28FDAF27AE2612176B
:100AD000C6E528501925E025E02408F8120C2FEC73
:100AE000540F4EFEEDFF120BAE120CA08058120BED
:100AF00098240BF8E4F6804E120BAE120D126970BA
:100B000045120CF1E528120BB5AA06752CFF8A2DAB
:100B1000F52EE528120CFC120BBF8E2FF530E528C0
:100B2000120C69F531E528120D07120BBF8E32F554
:100B300033E528120C78F534E528120C87F535AF2B
:100B400028120587400C0528E528C39402500302AB
:100B50000A7822C290E52925E025E02408F8E4F689
:100B600008F6E52925E025E0240AF8E4F6E529253C
:100B7000E025E022F583E493FF5408FE1313135499
:100B80001F24FF9202AB29AA2AA92BEF540775F064
:100B900002A4F58285F0832225E025E02408F8E40C
:100BA000F608F6E52825E025E0240AF8E4F6E5282D
:100BB00025E025E022C454F02484F582E43419F5BC
:100BC00083E493FE740193222408F8E6FC08E6FD12
:100BD000ECC4F854F0C8EDC4540F48540F22240A52
:100BE000F8E614131313541F2403F582E43400F5BC
:100BF0008322E529252BF582E43528F583E022A21E
:100C000000E433C433333354804526FFE527900096
:100C100074CFF0A3EFF0E490007BF022C454F024F2
:100C200087F582E43419F583E493FC74019322E69A
:100C3000FC08E6FDECC4540F2401FFEFC454F0FEA1
:100C400022E52E25E0248BF582E43400F583229002
:100C50000085E0FF90007AE06F22C454F02489F50B
:100C600082E43419F583E49322C454F0248CF58291
:100C7000E43419F583E49322C454F0248FF582E41C
:100C80003419F583E49322C454F02493F582E434B8
:100C900019F583E493225408131313541F24FF22DD
:100CA0002408F8A60608A607222530F582E4352F89
:100CB000F583E493222408F8E6FC08E6FDEC540FE3
:100CC000222408F9E7C4F854F0C809E7222533F5CF
:100CD00082E43532F583E4932290007AE090008537
:100CE000F053DAFE2225E0247DF582E43400F5831A
:100CF00022A200920185262A85272B22C454F024A3
:100D00008AF582E4341922C454F0248DF582E43447
:100D100019222408F8E6FEEEC4540F228E268F27EF
:100D2000C3E527940AE52694005003020EB0900014
:100D300087E024FE6025147003020DBD24036003C8
:100D4000020EB5C290AF27AE261218674003020EFE
:100D5000B5120BFF9000877402F022120EB65030CD
:100D600090007BE094044021D290E4900000F09049
:100D70000073F0C20490007CF090007AF0900003C1
:100D8000F09000877403F08025E4900087F0801EC7
:100D9000900074E0547FFEA3E0FFD3E5279FE52693
:100DA0009E4005120BFF800690007BE004F090004F
:100DB0007BE0C394E05003020EB5020EB090007CBD
:100DC000E004F090007BE0FFA3E0D39F4003020E1D
:100DD0005E7B007A007928AF27AE261211F24022FE
:100DE000900000E0FF120C43E526F0A3E527F08F0A
:100DF00028900000E004F0E0D394074005E4900060
:100E000087F030041DA200E433C43333335480FF31
:100E1000E528C454F04FFF900073E0120BE8EFF0A8
:100E20008039900073E0FF120BE8E0FEA200E4338B
:100E300033333354F84528FDEE4DF074032F120B75
:100E4000EA120C52FF121829EFF0900073E004F040
:100E5000E0D394704005E4900087F0B20422120EB3
:100E6000B6504D1218E45005E4900085F0120C4F76
:100E7000603A1218F47D207C037F017E0012174334
:100E8000120CD9900003E0FD900074E05480FF90B4
:100E90000000E0C454F04FFFED4F900003F09000CD
:100EA00074E0547FF0900086E04480F0C2908000AF
:100EB000E4900087F022A2009201AF27AE26120034
:100EC0002E228B298A2A892B8C2C8D2DE4F53D75B9
:100ED0003E80F53BE53BC3952E5010E52D253BF5B7
:100EE00082E4352C120F72053B80E9E4F53BE53BCB
:100EF000C395385057E53A253DF582E43539F583F9
:100F0000E0553E7019F53CE53CC39531502DE53078
:100F1000253CF582E4352F120F72053C80E9E4F59B
:100F20003CE53CC395345013E533253CF582E4356C
:100F300032120B74120FA1053C80E6E53EC313F597
:100F40003E7005053D753E80053B80A2E4F53BE51E
:100F50003BC395375013E536253BF582E435351212
:100F60000B74120FA1053B80E6C2909000877405B8
:100F7000F022F583E493FF5408FE131313541F2447
:100F8000FF9202AB29AA2AA92BEF540775F002A4FD
:100F9000F58285F08312081DF54085F03F120003AD
:100FA0002212081DF54085F03F120003228E268F85
:100FB000278C288D298B2AD200C201852982852879
:100FC00083E05488D394004003D38001C39201E4AA
:100FD000F52BE52BC3952A505930010D120BF2C4A5
:100FE000131313540124FF8002A20092028527826A
:100FF000852683C083C082120BF2FFC45407D082BF
:10100000D08312103B30010C120BF2FF1313135458
:101010001F138002A2009202852782852683C08347
:10102000C082120BF25407D082D08312103B052BE2
:1010300080A0C2909000877405F02275F00212091A
:1010400023E0F53FA3E0F540120003920022C0E048
:10105000C0F0C083C082C0D075D000C000C001C045
:1010600002C003C004C005C006C007E5985403F5DC
:1010700045F45298E54530E0171219299000DD1229
:10108000166AEFF09000DDE004F0E0B44002E4F016
:10109000E54530E12E9000E0E0D39400401A900046
:1010A000DCE02446F8E6FF1219269000DCE004F0AC
:1010B0009000E0E014F08002D2059000DCE0B42063
:1010C00002E4F0D007D006D005D004D003D002D07F
:1010D00001D000D0D0D082D083D0F0D0E03212192D
:1010E0002F787FE4F6D8FD7581650211280200761D
:1010F000E493A3F8E493A34003F68001F208DFF43D
:101100008029E493A3F85407240CC8C333C4540FB4
:101110004420C8834004F456800146F6DFE4800B87
:1011200001020408102040809012ECE47E019360DC
:10113000BCA3FF543F30E509541FFEE493A36001B4
:101140000ECF54C025E060A840B8E493A3FAE4931E
:10115000A3F8E493A3C8C582C8CAC583CAF0A3C8CC
:10116000C582C8CAC583CADFE9DEE780BEC0E0C069
:10117000F0C083C082C0D075D000C000C001C002E2
:10118000C003C004C005C006C007E5D85487F521D8
:10119000F452D8E5F730E508E5F730E603121931E7
:1011A00053F7DFE52130E708E5D930E003121930C5
:1011B000E52130E008E5DA30E003121712E52130CE
:1011C000E108E5DB30E003121932E52130E208E501
:1011D000DC30E003121933D007D006D005D004D09C
:1011E00003D002D001D000D0D0D082D083D0F0D0B4
:1011F000E0328E298F2A8B2B8A2C892DE4F52E90B4
:101200000000E0FFE52EC39F5064E52AAE29780375
:10121000CEC313CE13D8F9FDAC06E52AAE29780269
:10122000CEC313CE13D8F92DFFEE3CCF2401CF341B
:1012300000AB07FA120C41E0FEA3E0FFC39BEE9A5D
:1012400050028004AE02AF03AA06AB07120C41E0C5
:10125000FCA3E0FDAF2AAE291217E3500DAB2BAA79
:101260002CA92DE52E12078ED322052E8091C322A4
:10127000AE07E4F526121806900000E0041212E111
:10128000900000E0FFE526C39F501712165CE05463
:101290007FFF12180D12165CA3E0FF12180D052631
:1012A00080DE900074E0547FFF12180D900074A34C
:1012B000E01212E1E4F526900073E0FFE526C39FFB
:1012C0005017740325261216390526E526541F707B
:1012D000E612192312191F80DE7F5512180D02190C
:1012E00023FF12180D12192312191F224200E500C4
:1012F000004200E100004200E700004200E300007D
:10130000C183410086004100870041008A004100FE
:10131000790042000100004200880000420077008E
:1013200000C104410073004100850041007A004182
:1013300000000048007D00000000000000004100A7
:1013400076004100DD004100DF004100DB0041008C
:10135000DC004100E0004100DA00C1054100DE0090
:1013600041009900008F268C278D28EF120BB5AA1B
:1013700006F97BFFEF120C1CFDEF120C5AF52EEF55
:10138000120CFC120BBF8E2FF530EF120C69F531E9
:10139000EF120D07120BBF8E32F533EF120C78F5FA
:1013A00034EFC454F02490F582E43419120BBF8E4C
:1013B00035F536EFC454F02492F582E43419F58300
:1013C000E493F537EF120C87F53885273985283AED
:1013D000020EC2900076E0FDC4540F2401FBE433FA
:1013E000FAED540FF96B7001EA603DE97010E0C44A
:1013F000540F2401FDE433FCED64044C602A90009A
:1014000076E0C4540FFD540F120CE5EEF0A3EFF09C
:10141000ED04C454F049900076F0E0FFC4540FC3CB
:1014200094044004EF540FF022C0E0C083C082C097
:10143000D075D000C004C005C006C00753C87F9057
:1014400000E5E0FEA3E0FF4E700353C8FB9000E10F
:1014500012162E50099000E5E4F0A3F0800DC39021
:1014600000E6E09DF09000E5E09CF0D007D006D0CB
:1014700005D004D0D0D082D083D0E032C0E0C08389
:10148000C082C0D075D000C004C005C006C00753DC
:10149000917F9000E7E0FEA3E0FF4E70035391FBC5
:1014A0009000E312162E50099000E7E4F0A3F080BC
:1014B0000DC39000E8E09DF09000E7E09CF0D007BD
:1014C000D006D005D004D0D0D082D083D0E032ADC9
:1014D00007AC06ABDA900076E0FEC4540FFFEE5482
:1014E0000FFEB50702C32253DAFE900076E0FAEE53
:1014F000120CE5E0FFA3E08D828C83CFF0A3EFF028
:10150000EA54F0FF900076E0044FF0540FC39404C7
:101510004004E054F0F08BDAD322AE05AD07E4FCD2
:10152000FB7FAA12180DAF0512180DEEC454F0245B
:10153000CBF582E43419F583E493FFECC39F5007A5
:1015400074082CFC0B80F4EB04FF121808E4FCEC8C
:10155000C39B500974032C1216390C80F27F55126C
:10156000180D021923AE07E4FDF5261218069000A7
:1015700001E0FEA3E0FF7C007D0A12164A90000104
:10158000121652900077121645900077121652905C
:101590000088121645900088121652E4FD74032D3F
:1015A0001216390DBD03F67F5512180D0219238F3F
:1015B00026900079E0F5277E007F087D007B007A89
:1015C0000079081209557F0B12192C43DA01120019
:1015D000587D0A7C007F017E0012176C12001DE40A
:1015E000900087F0900086F0900099E526F090003A
:1015F00079F0AF2722AB07AA06E4F9F87F407E42D4
:101600007D0FFC120891A804A905AA06AB077F204C
:101610007ED77D757C01120891C3E49FFFE49EFE96
:1016200022AB07AA06E4F9F87FE87E03FD22E0FC7E
:10163000A3E0FDC3EF9DEE9C22F582E43400F58328
:10164000E0FF02180DE0FEA3E0FF1207A0EEFF028C
:10165000180DA3E075F00AA4FF02180DE52625E099
:10166000248BF582E43400F58322E0249AF582E4A9
:101670003400F583229000DDE0FF9000DBE0B50749
:10168000057E017F00229000DB12166AE0FD7C00DF
:101690009000DBE004F0E0B44002E4F09000DAE017
:1016A000FEEE4204E4F0AE04AF05228E418F428C80
:1016B000438D441215F512189BE54424FA9000E876
:1016C000F0E54334FF9000E7F0AE41AF427C007D8F
:1016D0000A1207B29000E3EEF0A3EFF04391042268
:1016E0009000EDE0FCA3E0FDEC547FFEAF0522ECA2
:1016F0005480C4131313540124FF22A3E493FE74F3
:10170000019322E49000EBF0A3F022900087E02404
:10171000FB22ADFBACFCAFD953D9BFE4F5FAF5F928
:101720008FD9C3EC948050157F002093027F01EF86
:10173000C433333354804CFEEDFF0213D3E49000E6
:1017400076F0228E378F388C398D3A121621121688
:101750000212188F9000E5E539F0A3E53AF0900009
:10176000E1E537F0A3E538F043C804228E288F293D
:101770008C2A8D2B12162112160212189B9000E74C
:10178000E52AF0A3E52BF09000E3E528F0A3E52996
:10179000F04391042212002A1218FB1219021218A7
:1017A000B31219171218401218D11218BD1218C707
:1017B0001218A712190912191B02191012081DFD7F
:1017C000ACF0AF2BAE2AAB07AA06AF05AE041218D9
:1017D00056C3ED9FFFEC9EFED3EF9BEE9A50028026
:1017E00001C322C3ED9BF582EC9AF583D3E5829F7A
:1017F000E5839E500FED2BFDEC3AFCD3EF9DEE9C64
:1018000050028001C3227FAA12180DAF06C20590B4
:1018100000DFE0B42002E4F09000DFE02446F8A608
:1018200007E004F0A3E004F0227E1DE4FDEF30E7C2
:101830000625E06EFF8004EF25E0FF0DBD08EE22D7
:10184000AF885388AF758CA0758DCBEF5440FEEFF9
:1018500054104E428822EF7802CEC313CE13D8F92B
:101860002401FFE43EFE22C3EF941EEE94004003E9
:10187000D38001C322121882D203900079E0FF02C4
:1018800015AFAE071218067F5512180D021923ADB9
:1018900007AC06ECF5CBAF058FCA22AD07AC06EC62
:1018A000F593AF058F9222C2DE75D90575F9FF75E4
:1018B00096012275E34075E10175E20122E591543C
:1018C000045391FB429122758E54758922438850AE
:1018D00022E5C8540453C8FB42C82253984FEB4F2B
:1018E0004DF59822E5C8C320E201D322E591C3203B
:1018F000E201D32253C8FB53C87F2275A41175D4CB
:10190000CF2275A54175D5772253F77F75DA30223E
:1019100075E69075A8B022E4F5A92243981022300C
:1019200005FD22D299228F9922AF99228F8C2222F3
:101930002222222200230069043D08020801090036
:10194000003F007E1B5802080009010819340319E2
:101950003A02193C02193E0200000018194003190E
:101960004602194802194A020000001400230069C7
:10197000043D080208010900003F007E1B580208D0
:1019800000090108196C0319720219740219760210
:1019900000000018197803197E02198002198202CA
:1019A0000000001400230069043D0802080109003A
:1019B000003F007E1B5802080009010819A4031902
:1019C000AA0219AC0219AE020000001819B00319DE
:0C19D000B60219B80219BA020000001497
:00000001FF
