:020000040000FA
:10000000021158A2029290A2029280AD40AC3F7FB2
:100010000A7E0012177712001DA202B322E591207A
:10002000E2FB220210C87597A522220214A6AD0792
:10003000AC06900074E0FAA3E0FBEA5480C413130A
:100040001354017005300102C322AF05AE04EA5417
:100050007FFCAD0312155622D2DE220211E71200F8
:100060007053D87853DAFE121999E4900087F02281
:10007000C2DE220214F9121861C290C296C280E454
:10008000FBFD7F1012198012053174A4F0D2AF125B
:1000900017CFD2969000ECE004F070069000EBE0F1
:1000A00004F09000EBE0B427E9A3E0B410E4C296BA
:1000B0001200263003091217418E228F2380067505
:1000C0002201752300E5237004E522640170469047
:1000D00000DEE070061217D00202959000EBE47586
:1000E000F001120A56FED3E5F09410EE9427400278
:1000F000D296D39000ECE094309000EBE0947550F1
:1001000003020295E4F0A3F09000DEF0900099F075
:10011000C2960202951217CF9000DEE014602A14F6
:1001200070030202591470030202171470030202D2
:100130003024046003020295E52364AA60030202EE
:10014000959000DE04F0020295E523900099F0906E
:1001500000DE7402F0E523120B7E0201A0017FA1F4
:10016000018BA501A9A601BDA701C6A801DDA901B2
:10017000CCB001D5B1019DC00295FF0000020C1268
:10018000051EE490008AF07FA1806512054E900064
:10019000EA7408F0E4F52575240902029512054E6B
:1001A000E4F52575240202029590008A7401F07F1F
:1001B000A612167B90007974A6F002029512053102
:1001C00074A4F00202959000EA7408F09000DE74C6
:1001D00003F00202957FB112056202029512051E1C
:1001E00090008AE09000E9F090008A7401F07FA905
:1001F0001205627D307C757F017E00121838020284
:100200009512056B900079EFF0E48005E490009979
:10021000F09000DEF0807EE4F525E523F524E5246A
:10022000D39400402C12005E9000DE7404F08065D0
:1002300074032525F582E43400F583E523F00525D4
:10024000E525B52402800AE525C39470404775244E
:10025000709000DE7402F0803CE5236455703690A7
:1002600000DEF0C203900099E02460601B24FC6073
:100270001224FE600E14600B24F760101460042436
:100280001070127FA0121927D2038009900004E099
:10029000049000EAF0900099E0120B7E02BEA103E8
:1002A00033A40377A50333A60447A802BEA9047CA0
:1002B000B004E5B1041EC00442FF000000B090008D
:1002C00086E030E73F7DC87C0012053F900099E052
:1002D0002457600E2408701F12056B7FA31216317D
:1002E00080159000E9E090008AF0900079E0FF121C
:1002F000167B7FAB12057CE4900086F043DA01D2D6
:10030000030200B012199150207DE87C0312053FD2
:10031000900099E02457600C240860030200B07F2D
:10032000A20204D77FAA0204D71205744003020078
:10033000B0802E900086E030E71F900099E0245AAC
:10034000600F240260030204F17FA412163102043C
:10035000F17FA612057C0204F1120574400302002D
:10036000B01217ACC006C0071217BB9200D007D05E
:10037000061205870200B09000DEE060030200B0C4
:100380001217D77003020411240560030200B01293
:100390000558900005E0FFA3E090008BCFF0A3EF9D
:1003A000F0900007E0FFA3E090008DCFF0A3EFF006
:1003B000900003E0FFA3E090008FCFF0A3EFF07B6D
:1003C000017A00798B901AAAE493FC740193FD9052
:1003D0001AACE493F52E1217C78E2FF530901AAF92
:1003E000E493F5311217C78E32F533901AB2E493C5
:1003F000F5341217C78E35F536901AB5E493F537F4
:10040000A3E493F538753900753A09120F3C0200E0
:10041000B09000EAE07063C2807FA00204D7900031
:10042000DEE060030200B0900003E0FCA3E0FD7F8B
:10043000017E00121838D29612001DC2967FA002CB
:1004400004D77F030204D79000DEE060030200B00F
:100450001217D76019240560030200B012055890E6
:100460000003E0FF7C007D041213DF0200B0900067
:10047000EAE07006C2807FA0805D80619000DEE0CF
:1004800060030200B01217D7604324056003020026
:10049000B09000EAE014F012005E7E007F05C00616
:1004A000C007900003E0FB25E0FFE433FE74052F56
:1004B000F58274003EAD82FCEB25E0FFE52424FECE
:1004C000C39FFBD007D0061210270200B09000EAAD
:1004D000E0700AC2807FA012191A0200B0E49000F6
:1004E00087F00200B0900086E030E7107FB1121272
:1004F000EAE4900086F043DA010200B07E007FED6E
:1005000012159B40030200B01217ACC006C00712C0
:1005100017BB9200D007D006120D960200B07D32B4
:100520007C007F017E00121838D29612001DC29600
:1005300022E490008AF07FA412167B900079227F3B
:10054000017E00121838D29612001DC296221200A7
:100550005E9000DE7404F0229000EAE014F01200D5
:100560005E2212167B900079EFF022900079E0FF76
:1005700012167B227E007FED12159B22900086E0F2
:10058000547FFD1215E6228E268F27E4F528C3E559
:1005900027940AE52694005017E4F528E528120C64
:1005A000062469F8E4F60528E528B40FEFC2902286
:1005B0007866E6C4540FF97075D3E52794C2E52632
:1005C00094015003020672300003020672E9120D14
:1005D00032E6540FFC08E6FDEC4E18F6ED08F6186E
:1005E000E6FC08E6FDECC4540F120D32EC540F4E3D
:1005F00018F6ED08F6900001E526F0A3E527F0AE29
:1006000026FF7C007D1F120A01EF2401FFE43EFE5D
:1006100090008BF0A3EFF07C007D031209EFA3EEB6
:10062000F0A3EFF0A3E526F0A3E527F08044786679
:10063000E6C4540F6402703A120D6B752C01752DCF
:1006400000752E8B901C6B93FE7401938E2FF530EA
:10065000901C6DE493F531A3120BFF8E32F53390AD
:100660001C70E493F534901C74E493F535E4FF12A8
:1006700007C490008AE0640160030207C375280183
:10068000120C1C120C5DFEEFC39E400302076B129E
:100690000C99120CF3F5828C832FF582E4358312CA
:1006A0000CC3300001B350030207B7120C1C120D2B
:1006B0008CF9704D120C99120BFDF5828E83E49328
:1006C000FF120CC7403B200038E528C454F02465D5
:1006D000F582E4341C120CF3F5828C83EF54077519
:1006E000F002120B72E493C313FE74019313FFC361
:1006F000E5279FE5269E4009120C1C120CDFE980BD
:100700004E120BF1F5828E83C083C082120C9912B7
:100710000BFDF5828E83120C1C120D8CFFE5822FCF
:10072000F582E43583F583E4935407D082D0837552
:10073000F002120B72120CF5FDAF27AE2612155601
:10074000E528501D25E025E0120CDFECC4540F1203
:100750000D32EC540F4EFEEDFF120C1C120D2980D1
:1007600056120C062469F8E4F6804C120C1C120C8C
:100770005D6F7043120D6B120BF1AA06752CFF8A88
:100780002DF52EE528120D76120BFD8E2FF530E596
:1007900028120CFCF531E528120D81120BFD8E326A
:1007A000F533E528120D0BF534E528120D1AF53551
:1007B000AF281207C4400C0528E528C3940F500346
:1007C000020680228F29E4F536EF25E025E0246833
:1007D000F8E6701EEF25E025E02469F876087E0033
:1007E0007F707D007B017A007903120BA4E49000F6
:1007F0007AF0AB2CAA2DA92EC001120BEA2466F9BF
:10080000E7540F2530F582E4352FF583E493120C7D
:100810003BD00112154C5044120BEA2466F9E75400
:100820000FFF2530F582E4352F120CC3300101B3E0
:100830004034EF700A900077E52AF0A3E52BF01220
:100840000BEA120CDFEC540F2401FFEFFEEC54F026
:100850004EFEEDFF120BEA120D29800A120BEA245C
:1008600066F874F056F6AB2CAA2DA92EC001120B17
:10087000EA120D3B120C56120D47120C3BD001121E
:10088000154C5052120BEA120D3B120C56FF120D72
:10089000475408FE120CC9300101B34043EF700AFF
:1008A000900088E52AF0A3E52BF0120BEA120C4722
:1008B0002401FFE433FEEFC4F8540FC868FFEEC410
:1008C00054F048FEED540FFDEC4EFEED4FFF120BC1
:1008D000EA120D29800A120BEA2467F8740F56F603
:1008E000120BEA120CDFEC540FFB700F120C4F705E
:1008F0000A120BD02469F8E4F6C322120BEA24682A
:10090000F8E53514667003753601C3E53195366B2D
:100910007020D290120BEA2466F874F056F6740F29
:100920000856120BE92468F806120BEA2469F81637
:10093000804C120BEA120C47FFC3E53495366F70FA
:100940003DD290120BEA2466F8EC54F0FEED540F01
:10095000A60608120BE92468F806120BEA2469F8C7
:1009600016120BEA120C78E0FF120BEA2469F8E683
:10097000FE7401A806088002C333D8FC4FF0120BA6
:10098000EA2469F8E67017120BEA120C78120CEBE5
:10099000FF1218CEEFF0120BEA2469F87608120B5A
:1009A000EA2468F8E6C3953540311219895005E408
:1009B000900085F0120CE860181219997D207C03D4
:1009C0007F017E0012180F120D53A3E529F0448019
:1009D000F0120BD02469F8E4F6D322C322BB01063F
:1009E00089828A83F0225002F722BBFE01F322EFB4
:1009F0008DF0A4A8F0CF8CF0A428CE8DF0A42EFE0C
:100A000022BC000BBE0029EF8DF084FFADF022E484
:100A1000CCF875F008EF2FFFEE33FEEC33FCEE9DC3
:100A2000EC984005FCEE9DFE0FD5F0E9E4CEFD22EA
:100A3000EDF8F5F0EE8420D21CFEADF075F008EF75
:100A40002FFFED33FD4007985006D5F0F222C398F2
:100A5000FD0FD5F0EA22C5F0F8A3E028F0C5F0F8C4
:100A6000E582158270021583E038F022BB0110E5A3
:100A70008229F582E5833AF583E0F5F0A3E0225080
:100A800009E92582F886F008E622BBFE0AE92582FC
:100A9000F8E2F5F008E222E5832AF583E993F5F020
:100AA000A3E9932275F008758200EF2FFFEE33FE65
:100AB000CD33CDCC33CCC58233C5829BED9AEC9936
:100AC000E58298400CF582EE9BFEED9AFDEC99FCD8
:100AD0000FD5F0D6E4CEFBE4CDFAE4CCF9A882221F
:100AE000B800C1B90059BA002DEC8BF084CFCECD3F
:100AF000FCE5F0CBF97818EF2FFFEE33FEED33FD78
:100B0000EC33FCEB33FB10D703994004EB99FB0F5C
:100B1000D8E5E4F9FA227818EF2FFFEE33FEED3333
:100B2000FDEC33FCC933C910D7059BE99A4007ECAB
:100B30009BFCE99AF90FD8E0E4C9FAE4CCFB2275F2
:100B4000F010EF2FFFEE33FEED33FDCC33CCC83386
:100B5000C810D7079BEC9AE899400AED9BFDEC9AE8
:100B6000FCE899F80FD5F0DAE4CDFBE4CCFAE4C860
:100B7000F922A42582F582E5F03583F58322D0831E
:100B8000D082F8E4937012740193700DA3A393F8CC
:100B9000740193F5828883E4737402936860EFA311
:100BA000A3A380DFEF4E6012EF60010EEDBB010BDF
:100BB00089828A83F0A3DFFCDEFA2289F05007F7EE
:100BC00009DFFCA9F022BBFEFCF309DFFCA9F0223F
:100BD000C290E52925E025E02466F8E4F608F6E56C
:100BE0002925E025E02468F8E4F6E52925E025E05C
:100BF00022E528C454F02465F582E4341CF583E42E
:100C000093FE7401932225E025E02466F8E4F608BB
:100C1000F6E52825E025E02468F8E4F6E52825E057
:100C200025E022F583E493FF5408FE131313541FA9
:100C300024FF9202AB29AA2AA92BEF540775F002D0
:100C4000A4F58285F083222466F8E6FC08E6FDEC34
:100C5000C4F854F0C8EDC4540F48540F222466F869
:100C6000E6FEEEC4540FFFE528C454F0246AF58272
:100C7000E4341CF583E493222468F8E61413131378
:100C8000541F2403F582E43400F58322E529252B43
:100C9000F582E43528F583E022E528C454F0246881
:100CA000F582E4341C22A200E433C433333354808D
:100CB0004526FFE527900074CFF0A3EFF0E4900005
:100CC0007BF022F583E4935408131313541F24FF7D
:100CD00022E52E25E0248BF582E43400F5832224DE
:100CE00066F8E6FC08E6FD22900085E0FF90007AB9
:100CF000E06F22F583E493FC74019322C454F02442
:100D00006DF582E4341CF583E49322C454F024701E
:100D1000F582E4341CF583E49322C454F02474F582
:100D200082E4341CF583E493222466F8A60608A620
:100D300007222401FFEFC454F0FE222466F9E7C421
:100D4000F854F0C809E7222533F582E43532F583FB
:100D5000E4932290007AE0900085F053DAFE222599
:100D6000E0247DF582E43400F58322A2009201851F
:100D7000262A85272B22C454F0246BF582E4341CE8
:100D800022C454F0246EF582E4341C222466F8E672
:100D9000FEEEC4540F228E268F27C3E527940AE562
:100DA0002694005003020F2A900087E024FE60255D
:100DB000147003020E3724036003020F2FC290AF9A
:100DC00027AE2612190C4003020F2F120CA690001A
:100DD000877402F022120F30503090007BE09404B0
:100DE0004021D290E4900000F0900073F0C2049093
:100DF000007CF090007AF0900003F090008774037C
:100E0000F08025E4900087F0801E900074E0547F0D
:100E1000FEA3E0FFD3E5279FE5269E4005120CA622
:100E2000800690007BE004F090007BE0C394E050EB
:100E300003020F2F020F2A90007CE004F090007B49
:100E4000E0FFA3E0D39F4003020ED87B007A007935
:100E500028AF27AE2612126C4022900000E0FF124D
:100E60000CD3E526F0A3E527F08F28900000E004DE
:100E7000F0E0D394074005E4900087F030041DA211
:100E800000E433C43333335480FFE528C454F04FB7
:100E9000FF900073E0120C82EFF08039900073E055
:100EA000FF120C82E0FEA200E43333333354F845E2
:100EB00028FDEE4DF074032F120C84120CEBFF1280
:100EC00018CEEFF0900073E004F0E0D3947040058A
:100ED000E4900087F0B20422120F30504D121989AD
:100EE0005005E4900085F0120CE8603A1219997DE3
:100EF000207C037F017E0012180F120D5390000317
:100F0000E0FD900074E05480FF900000E0C454F0D5
:100F10004FFFED4F900003F0900074E0547FF0908D
:100F20000086E04480F0C2908000E4900087F022C8
:100F3000A2009201AF27AE2612002E228B298A2A08
:100F4000892B8C2C8D2DE4F53D753E80F53BE53BE2
:100F5000C3952E5010E52D253BF582E4352C120F5C
:100F6000EC053B80E9E4F53BE53BC395385057E59C
:100F70003A253DF582E43539F583E0553E7019F5A3
:100F80003CE53CC39531502DE530253CF582E435F8
:100F90002F120FEC053C80E9E4F53CE53CC39534A9
:100FA0005013E533253CF582E43532120C23121040
:100FB0001B053C80E6E53EC313F53E7005053D7517
:100FC0003E80053B80A2E4F53BE53BC395375013DB
:100FD000E536253BF582E43535120C2312101B054E
:100FE0003B80E6C2909000877405F022F583E4937D
:100FF000FF5408FE131313541F24FF9202AB29AAB7
:101000002AA92BEF540775F002A4F58285F083120C
:101010000A6CF54085F03F12000322120A6CF5407D
:1010200085F03F120003228E268F278C288D298B76
:101030002AD200C201852982852883E05488D3946E
:10104000004003D38001C39201E4F52BE52BC39547
:101050002A505930010D120C8CC41313135401245F
:10106000FF8002A2009202852782852683C083C06A
:1010700082120C8CFFC45407D082D0831210B5307A
:10108000010C120C8CFF131313541F138002A200C7
:101090009202852782852683C083C082120C8C54DD
:1010A00007D082D0831210B5052B80A0C29090008B
:1010B000877405F02275F002120B72E0F53FA3E091
:1010C000F540120003920022C0E0C0F0C083C0824D
:1010D000C0D075D000C000C001C002C003C004C0B1
:1010E00005C006C007E5985403F545F45298E54558
:1010F00030E0171219CE9000DD121736EFF0900095
:10110000DDE004F0E0B44002E4F0E54530E12E908B
:1011100000E0E0D39400401A9000DCE02446F8E6BA
:10112000FF1219CB9000DCE004F09000E0E014F036
:101130008002D2059000DCE0B42002E4F0D007D0B9
:1011400006D005D004D003D002D001D000D0D0D03A
:1011500082D083D0F0D0E0321219D4787FE4F6D870
:10116000FD7581A10211A2020076E493A3F8E49335
:10117000A34003F68001F208DFF48029E493A3F88A
:101180005407240CC8C333C4540F4420C8834004FC
:10119000F456800146F6DFE4800B010204081020BB
:1011A0004080901366E47E019360BCA3FF543F30FF
:1011B000E509541FFEE493A360010ECF54C025E05F
:1011C00060A840B8E493A3FAE493A3F8E493A3C817
:1011D000C582C8CAC583CAF0A3C8C582C8CAC583A8
:1011E000CADFE9DEE780BEC0E0C0F0C083C082C0D5
:1011F000D075D000C000C001C002C003C004C0054B
:10120000C006C007E5D85487F521F452D8E5F73079
:10121000E508E5F730E6031219D653F7DFE521308C
:10122000E708E5D930E0031219D5E52130E008E5FB
:10123000DA30E0031217DEE52130E108E5DB30E0CB
:10124000031219D7E52130E208E5DC30E00312197A
:10125000D8D007D006D005D004D003D002D001D01A
:1012600000D0D0D082D083D0F0D0E0328E298F2A27
:101270008B2B8A2C892DE4F52E900000E0FFE52EC3
:10128000C39F5064E52AAE297803CEC313CE13D88A
:10129000F9FDAC06E52AAE297802CEC313CE13D8E9
:1012A000F92DFFEE3CCF2401CF3400AB07FA120C2E
:1012B000D1E0FEA3E0FFC39BEE9A50028004AE0291
:1012C000AF03AA06AB07120CD1E0FCA3E0FDAF2AE6
:1012D000AE29121888500DAB2BAA2CA92DE52E1281
:1012E00009DDD322052E8091C322AE07E4F5261234
:1012F00018AB900000E00412135B900000E0FFE5E3
:1013000026C39F5017121728E0547FFF1218B212FD
:101310001728A3E0FF1218B2052680DE900074E0C3
:10132000547FFF1218B2900074A3E012135BE4F52F
:1013300026900073E0FFE526C39F5017740325260F
:101340001217050526E526541F70E61219C8121952
:10135000C480DE7F551218B20219C8FF1218B212EB
:1013600019C81219C4224200E500004200E1000041
:101370004200E700004200E30000C1834100860014
:101380004100870041008A004100790042000100CD
:101390000042008800004200770000C10441007351
:1013A000004100850041007A004100000048007DB6
:1013B0000000000000000000410076004100DD0058
:1013C0004100DF004100DB004100DC004100E000A3
:1013D0004100DA00C1054100DE0041009900008FA4
:1013E000268C278D28EF120BF3AA06F97BFFEF124C
:1013F0000C9B120CF3FDEF120C69F52EEF120D761B
:10140000120BFD8E2FF530EF120CFCF531EF120DA3
:1014100081120BFD8E32F533EF120D0BF534EFC454
:1014200054F02471F582E4341C120BFD8E35F53630
:10143000EFC454F02473F582E4341CF583E493F58F
:1014400037EF120D1AF53885273985283A020F3CF7
:10145000900076E0FDC4540F2401FBE433FAED5410
:101460000FF96B7001EA603DE97010E0C4540F247D
:1014700001FDE433FCED64044C602A900076E0C486
:10148000540FFD540F120D5FEEF0A3EFF0ED04C406
:1014900054F049900076F0E0FFC4540FC394044028
:1014A00004EF540FF022C0E0C083C082C0D075D0DA
:1014B00000C004C005C006C00753C87F9000E5E027
:1014C000FEA3E0FF4E700353C8FB9000E11216FA32
:1014D00050099000E5E4F0A3F0800DC39000E6E031
:1014E0009DF09000E5E09CF0D007D006D005D00438
:1014F000D0D0D082D083D0E032C0E0C083C082C0E0
:10150000D075D000C004C005C006C00753917F90BD
:1015100000E7E0FEA3E0FF4E70035391FB9000E371
:101520001216FA50099000E7E4F0A3F0800DC39082
:1015300000E8E09DF09000E7E09CF0D007D006D0F6
:1015400005D004D0D0D082D083D0E032120A6CFD16
:10155000ACF0AF2BAE2A8F828E83AF05AE0412188B
:10156000FBAB07AA06D3EB9432EA940040067E0058
:101570007F328004AE02AF03AA06AB07C3EB940A26
:10158000EA940050067E007F0A8004AE02AF03AAF0
:1015900006AB07AF82AE8312188822AD07AC06AB4C
:1015A000DA900076E0FEC4540FFFEE540FFEB5074C
:1015B00002C32253DAFE900076E0FAEE120D5FE0ED
:1015C000FFA3E08D828C83CFF0A3EFF0EA54F0FF0D
:1015D000900076E0044FF0540FC394044004E054AC
:1015E000F0F08BDAD322AE05AD07E4FCFB7FAA1244
:1015F00018B2AF051218B2EEC454F02432F582E4EA
:10160000341EF583E493FFECC39F500774082CFC51
:101610000B80F4EB04FF1218ADE4FCECC39B500903
:1016200074032C1217050C80F27F551218B20219A0
:10163000C8AE07E4FDF5261218AB900001E0FEA34A
:10164000E0FF7C007D0A12171690000112171E9011
:10165000007712171190007712171E90008812174A
:101660001190008812171EE4FD74032D1217050D4A
:10167000BD03F67F551218B20219C88F2690007963
:10168000E0F5277E007F3C7D007B007A00796612C2
:101690000BA47F0B1219D143DA011200587D0A7C8A
:1016A000007F017E0012183812001DE4900087F0C0
:1016B000900086F0900099E526F0900079F0AF2731
:1016C00022AB07AA06E4F9F87F407E427D0FFC12A8
:1016D0000AE0A804A905AA06AB077F207ED77D757E
:1016E0007C01120AE0C3E49FFFE49EFE22AB07AA3E
:1016F00006E4F9F87FE87E03FD22E0FCA3E0FDC3E9
:10170000EF9DEE9C22F582E43400F583E0FF0218A1
:10171000B2E0FEA3E0FF1209EFEEFF0218B2A3E071
:1017200075F00AA4FF0218B2E52625E0248BF582A5
:10173000E43400F58322E0249AF582E43400F58352
:10174000229000DDE0FF9000DBE0B507057E017F21
:1017500000229000DB121736E0FD7C009000DBE0F9
:1017600004F0E0B44002E4F09000DAE0FEEE42045F
:10177000E4F0AE04AF05228E418F428C438D4412BB
:1017800016C1121940E54424FA9000E8F0E543340C
:10179000FF9000E7F0AE41AF427C007D0A120A01E3
:1017A0009000E3EEF0A3EFF0439104229000EDE00F
:1017B000FCA3E0FDEC547FFEAF0522EC5480C41383
:1017C0001313540124FF22A3E493FE74019322E433
:1017D0009000EBF0A3F022900087E024FB22ADFB09
:1017E000ACFCAFD953D9BFE4F5FAF5F98FD9C3EC06
:1017F000948050157F002093027F01EFC433333370
:1018000054804CFEEDFF021450E4900076F0228EDE
:10181000378F388C398D3A1216ED1216CE121934D4
:101820009000E5E539F0A3E53AF09000E1E537F006
:10183000A3E538F043C804228E288F298C2A8D2BEB
:101840001216ED1216CE1219409000E7E52AF0A309
:10185000E52BF09000E3E528F0A3E529F04391049F
:101860002212002A1219A01219A71219581219BC13
:101870001218E512197612196212196C12194C120B
:1018800019AE1219C00219B5C3ED9BF582EC9AF599
:1018900083D3E5829FE5839E500FED2BFDEC3AFC50
:1018A000D3EF9DEE9C50028001C3227FAA1218B292
:1018B000AF06C2059000DFE0B42002E4F09000DF44
:1018C000E02446F8A607E004F0A3E004F0227E1D21
:1018D000E4FDEF30E70625E06EFF8004EF25E0FF32
:1018E0000DBD08EE22AF885388AF758CA0758DCBE7
:1018F000EF5440FEEF54104E428822EF7802CEC3E0
:1019000013CE13D8F92401FFE43EFE22C3EF941E48
:10191000EE94004003D38001C322121927D2039012
:101920000079E0FF02167BAE071218AB7F55121844
:10193000B20219C8AD07AC06ECF5CBAF058FCA22D1
:10194000AD07AC06ECF593AF058F9222C2DE75D9D8
:101950000575F9FF7596012275E34075E10175E2A1
:101960000122E59154045391FB429122758E5475E6
:10197000892243885022E5C8540453C8FB42C82238
:1019800053984FEB4F4DF59822E5C8C320E201D3A1
:1019900022E591C320E201D32253C8FB53C87F2222
:1019A00075A41175D4CF2275A54175D5772253F74B
:1019B0007F75DA302275E69075A8B022E4F5A92289
:1019C000439810223005FD22D299228F9922AF9997
:1019D000228F8C22222222222200230069043D0829
:1019E00002080109000025004A01E0009603480AA8
:1019F0000308010900040026006E012C03840A0379
:101A0000080109000032006400960B86030A0108F1
:101A10000100280078012C02D50A03080109000002
:101A20002D005A040B0208000901080015002A02C3
:101A3000F40208000901080014002602B702080099
:101A400009010800230041051402080009010800EB
:101A5000230046061D0208000901080041030D008D
:101A6000B6018E0801080208030024004801E000C6
:101A7000960A0308010900003B0096002B05410A65
:101A80000308010900001E0100000E007303FF0897
:101A900001080308020802080308040046008C1F1E
:101AA000A402080009010819D90319DF0219E1028B
:101AB00019E3020000001819E50519EF0219F102F7
:101AC00019F30219F5012819F60419FE021A000289
:101AD0001A0202000000181A04041A0C011A0D025E
:101AE0001A0F02000000471A11041A19021A1B02E9
:101AF0001A1D02000000181A1F031A25021A2702D5
:101B00001A2902000000181A2B031A31021A330294
:101B10001A35020000000C1A37031A3D021A3F0260
:101B20001A41020000000C1A43031A49021A4B0220
:101B30001A4D020000000C1A4F031A55021A5702E0
:101B40001A5902000000121A5B041A63021A650295
:101B50001A6702000000281A69041A71021A730237
:101B60001A7502000000281A77041A7F021A8102EF
:101B70001A8302000000181A85051A8F021A9104B0
:101B80001A95041A9902201A9B031AA1021AA30299
:101B90001AA5020000001400230069043D08020891
:101BA0000109000025004A01E0009603480A0308E5
:101BB000010900040026006E012C03840A030801B9
:101BC00009000032006400960B86030A0108010038
:101BD000280078012C02D50A0308010900002D0015
:101BE0005A040B0208000901080015002A02F40239
:101BF00008000901080014002602B70208000901C4
:101C00000800230041051402080009010800230010
:101C100046061D0208000901080041030D00B60137
:101C20008E0801080208030024004801E000960A1B
:101C30000308010900003B0096002B05410A030838
:101C4000010900001E0100000E007303FF080108D7
:101C50000308020802080308040046008C1FA402BF
:101C600008000901081B97031B9D021B9F021BA173
:101C700002000000181BA3051BAD021BAF021BB125
:101C8000021BB301281BB4041BBC021BBE021BC0F9
:101C900002000000181BC2041BCA011BCB021BCD93
:101CA00002000000471BCF041BD7021BD9021BDB1D
:101CB00002000000181BDD031BE3021BE5021BE70B
:101CC00002000000181BE9031BEF021BF1021BF3CB
:101CD000020000000C1BF5031BFB021BFD021BFF97
:101CE000020000000C1C01031C07021C09021C0B53
:101CF000020000000C1C0D031C13021C15021C1713
:101D000002000000121C19041C21021C23021C25C5
:101D100002000000281C27041C2F021C31021C3367
:101D200002000000281C35041C3D021C3F021C411F
:101D300002000000181C43051C4D021C4F041C53DC
:101D4000041C5702201C59031C5F021C61021C6307
:101D5000020000001400230069043D080208010984
:101D6000000025004A01E0009603480A0308010923
:101D700000040026006E012C03840A0308010900F8
:101D80000032006400960B86030A01080100280057
:101D900078012C02D50A0308010900002D005A041D
:101DA0000B0208000901080015002A02F4020800CD
:101DB0000901080014002602B70208000901080002
:101DC000230041051402080009010800230046060B
:101DD0001D0208000901080041030D00B6018E082C
:101DE00001080208030024004801E000960A0308E5
:101DF000010900003B0096002B05410A0308010978
:101E000000001E0100000E007303FF080108030814
:101E1000020802080308040046008C1FA402080000
:101E20000901081D55031D5B021D5D021D5F0200B7
:101E30000000181D61051D6B021D6D021D6F021D46
:101E40007101281D72041D7A021D7C021D7E020094
:101E50000000181D80041D88011D89021D8B0200D1
:101E60000000471D8D041D95021D97021D9902005B
:101E70000000181D9B031DA1021DA3021DA5020049
:101E80000000181DA7031DAD021DAF021DB1020009
:101E900000000C1DB3031DB9021DBB021DBD0200D5
:101EA00000000C1DBF031DC5021DC7021DC9020095
:101EB00000000C1DCB031DD1021DD3021DD5020055
:101EC0000000121DD7041DDF021DE1021DE3020008
:101ED0000000281DE5041DED021DEF021DF10200AA
:101EE0000000281DF3041DFB021DFD021DFF020062
:101EF0000000181E01051E0B021E0D041E11041EFB
:101F00001502201E17031E1D021E1F021E210200A5
:031F1000000014BA
:00000001FF
