:020000040000FA
:1000000002115FA2029290A2029280AD40AC3F7FAB
:100010000A7E0012177E12001DA202B322E5912073
:10002000E2FB220210CF7597A522220214ADAD0784
:10003000AC06900074E0FAA3E0FBEA5480C413130A
:100040001354017005300102C322AF05AE04EA5417
:100050007FFCAD0312155D22D2DE220211EE1200EA
:100060007053D87853DAFE1219A0E4900087F0227A
:10007000C2DE22021500121868C290C296C280E445
:10008000FBFD7F1012198712053174A4F0D2AF1254
:1000900017D6D2969000ECE004F070069000EBE0EA
:1000A00004F09000EBE0B427E9A3E0B410E4C296BA
:1000B0001200263003091217488E228F23800675FE
:1000C0002201752300E5237004E522640170469047
:1000D00000DEE070061217D70202959000EBE4757F
:1000E000F001120A5DFED3E5F09410EE9427400271
:1000F000D296D39000ECE094309000EBE0947550F1
:1001000003020295E4F0A3F09000DEF0900099F075
:10011000C2960202951217D69000DEE014602A14EF
:1001200070030202591470030202171470030202D2
:100130003024046003020295E52364AA60030202EE
:10014000959000DE04F0020295E523900099F0906E
:1001500000DE7402F0E523120B850201A0017FA1ED
:10016000018BA501A9A601BDA701C6A801DDA901B2
:10017000CCB001D5B1019DC00295FF0000020C1268
:10018000051EE490008AF07FA1806512054E900064
:10019000EA7408F0E4F52575240902029512054E6B
:1001A000E4F52575240202029590008A7401F07F1F
:1001B000A612168290007974A6F0020295120531FB
:1001C00074A4F00202959000EA7408F09000DE74C6
:1001D00003F00202957FB112056202029512051E1C
:1001E00090008AE09000E9F090008A7401F07FA905
:1001F0001205627D307C757F017E0012183F02027D
:100200009512056B900079EFF0E48005E490009979
:10021000F09000DEF0807EE4F525E523F524E5246A
:10022000D39400402C12005E9000DE7404F08065D0
:1002300074032525F582E43400F583E523F00525D4
:10024000E525B52402800AE525C39470404775244E
:10025000709000DE7402F0803CE5236455703690A7
:1002600000DEF0C203900099E02460601B24FC6073
:100270001224FE600E14600B24F760101460042436
:100280001070127FA012192ED2038009900004E092
:10029000049000EAF0900099E0120B8502BEA103E1
:1002A00033A40377A50333A60447A802BEA9047CA0
:1002B000B004E5B1041EC00442FF000000B090008D
:1002C00086E030E73F7DC87C0012053F900099E052
:1002D0002457600E2408701F12056B7FA312163876
:1002E00080159000E9E090008AF0900079E0FF121C
:1002F00016827FAB12057CE4900086F043DA01D2CF
:10030000030200B012199850207DE87C0312053FCB
:10031000900099E02457600C240860030200B07F2D
:10032000A20204D77FAA0204D71205744003020078
:10033000B0802E900086E030E71F900099E0245AAC
:10034000600F240260030204F17FA4121638020435
:10035000F17FA612057C0204F1120574400302002D
:10036000B01217B3C006C0071217C29200D007D050
:10037000061205870200B09000DEE060030200B0C4
:100380001217DE7003020411240560030200B0128C
:100390000558900005E0FFA3E090008BCFF0A3EF9D
:1003A000F0900007E0FFA3E090008DCFF0A3EFF006
:1003B000900003E0FFA3E090008FCFF0A3EFF07B6D
:1003C000017A00798B901AB1E493FC740193FD904B
:1003D0001AB3E493F52E1217CE8E2FF530901AB67D
:1003E000E493F5311217CE8E32F533901AB9E493B7
:1003F000F5341217CE8E35F536901ABCE493F537E6
:10040000A3E493F538753900753A09120F430200D9
:10041000B09000EAE07063C2807FA00204D7900031
:10042000DEE060030200B0900003E0FCA3E0FD7F8B
:10043000017E0012183FD29612001DC2967FA002C4
:1004400004D77F030204D79000DEE060030200B00F
:100450001217DE6019240560030200B012055890DF
:100460000003E0FF7C007D041213E60200B0900060
:10047000EAE07006C2807FA0805D80619000DEE0CF
:1004800060030200B01217DE60432405600302001F
:10049000B09000EAE014F012005E7E007F05C00616
:1004A000C007900003E0FB25E0FFE433FE74052F56
:1004B000F58274003EAD82FCEB25E0FFE52424FECE
:1004C000C39FFBD007D00612102E0200B09000EAA6
:1004D000E0700AC2807FA01219210200B0E49000EF
:1004E00087F00200B0900086E030E7107FB1121272
:1004F000F1E4900086F043DA010200B07E007FED67
:100500001215A240030200B01217B3C006C00712B2
:1005100017C29200D007D006120D9D0200B07D32A6
:100520007C007F017E0012183FD29612001DC296F9
:1005300022E490008AF07FA4121682900079227F34
:10054000017E0012183FD29612001DC296221200A0
:100550005E9000DE7404F0229000EAE014F01200D5
:100560005E22121682900079EFF022900079E0FF6F
:10057000121682227E007FED1215A222900086E0E4
:10058000547FFD1215ED228E268F27E4F528C3E552
:1005900027940AE52694005017E4F528E528120C64
:1005A0000D2469F8E4F60528E528B40FEFC290227F
:1005B00090008AE01470030206840460030207CAF4
:1005C0007866E6C4540FF97074D3E52794C2E52623
:1005D000940150030207CA3000030207CAE9120D52
:1005E00039E6540FFC08E6FDEC4E18F6ED08F61857
:1005F000E6FC08E6FDECC4540F120D39EC540F4E26
:1006000018F6ED08F6900001E526F0A3E527F0AE18
:1006100026FF7C007D1F120A08EF2401FFE43EFE46
:1006200090008BF0A3EFF07C007D031209F6A3EE9F
:10063000F0A3EFF0A3E526F0A3E527F0227866E625
:10064000C4540F640260030207CA120D72752C01B4
:10065000752D00752E8B901C7293FE7401938E2F56
:10066000F530901C74E493F531A3120C068E32F52C
:1006700033901C77E493F534901C7BE493F535E4D8
:10068000FF0207CBE4F528120C23120C64FEEFC323
:100690009E4003020772120CA0120CFAF5828C83A2
:1006A0002FF582E43583120CCA300001B3500302E7
:1006B00007BE120C23120D93F9704D120CA0120CF0
:1006C00004F5828E83E493FF120CCE403B20003869
:1006D000E528C454F0246CF582E4341C120CFAF5BD
:1006E000828C83EF540775F002120B79E493C313E5
:1006F000FE74019313FFC3E5279FE5269E40091270
:100700000C23120CE6E9804E120BF8F5828E83C0A2
:1007100083C082120CA0120C04F5828E83120C236B
:10072000120D93FFE5822FF582E43583F583E49380
:100730005407D082D08375F002120B79120CFCFDA5
:10074000AF27AE2612155DE528501D25E025E012E5
:100750000CE6ECC4540F120D39EC540F4EFEEDFFB5
:10076000120C23120D308056120C0D2469F8E4F699
:10077000804C120C23120C646F7043120D72120B1A
:10078000F8AA06752CFF8A2DF52EE528120D7D128C
:100790000C048E2FF530E528120D03F531E52812F3
:1007A0000D88120C048E32F533E528120D12F53443
:1007B000E528120D21F535AF281207CB400C05288E
:1007C000E528C3940F5003020687228F29E4F536EB
:1007D000EF25E025E02468F8E6701EEF25E025E02F
:1007E0002469F876087E007F707D007B017A0079AD
:1007F00003120BABE490007AF0AB2CAA2DA92EC00B
:1008000001120BF12466F9E7540F2530F582E43527
:100810002FF583E493120C42D00112155350441269
:100820000BF12466F9E7540FFF2530F582E4352FEC
:10083000120CCA300101B34034EF700A900077E522
:100840002AF0A3E52BF0120BF1120CE6EC540F2466
:1008500001FFEFFEEC54F04EFEEDFF120BF1120D16
:1008600030800A120BF12466F874F056F6AB2CAA0D
:100870002DA92EC001120BF1120D42120C5D120DAA
:100880004E120C42D0011215535052120BF1120DA0
:1008900042120C5DFF120D4E5408FE120CD03001B6
:1008A00001B34043EF700A900088E52AF0A3E52BDE
:1008B000F0120BF1120C4E2401FFE433FEEFC4F8EA
:1008C000540FC868FFEEC454F048FEED540FFDEC21
:1008D0004EFEED4FFF120BF1120D30800A120BF19C
:1008E0002467F8740F56F6120BF1120CE6EC540F55
:1008F000FB700F120C56700A120BD72469F8E4F63D
:10090000C322120BF12468F8E535146670037536BE
:1009100001C3E53195366B7020D290120BF124663D
:10092000F874F056F6740F0856120BF02468F806A7
:10093000120BF12469F816804C120BF1120C4EFFC9
:10094000C3E53495366F703DD290120BF12466F8F2
:10095000EC54F0FEED540FA60608120BF02468F8D4
:1009600006120BF12469F816120BF1120C7FE0FF4E
:10097000120BF12469F8E6FE7401A806088002C390
:1009800033D8FC4FF0120BF12469F8E67017120B04
:10099000F1120C7F120CF2FF1218D5EFF0120BF1CE
:1009A0002469F87608120BF12468F8E6C3953540FF
:1009B000311219905005E4900085F0120CEF601888
:1009C0001219A07D207C037F017E00121816120DE3
:1009D0005AA3E529F04480F0120BD72469F8E4F615
:1009E000D322C322BB010689828A83F0225002F7F8
:1009F00022BBFE01F322EF8DF0A4A8F0CF8CF0A46F
:100A000028CE8DF0A42EFE22BC000BBE0029EF8D57
:100A1000F084FFADF022E4CCF875F008EF2FFFEE84
:100A200033FEEC33FCEE9DEC984005FCEE9DFE0F92
:100A3000D5F0E9E4CEFD22EDF8F5F0EE8420D21CED
:100A4000FEADF075F008EF2FFFED33FD4007985035
:100A500006D5F0F222C398FD0FD5F0EA22C5F0F8D2
:100A6000A3E028F0C5F0F8E582158270021583E056
:100A700038F022BB0110E58229F582E5833AF5833F
:100A8000E0F5F0A3E0225009E92582F886F008E6B7
:100A900022BBFE0AE92582F8E2F5F008E222E583AE
:100AA0002AF583E993F5F0A3E9932275F00875829E
:100AB00000EF2FFFEE33FECD33CDCC33CCC58233E8
:100AC000C5829BED9AEC99E58298400CF582EE9BED
:100AD000FEED9AFDEC99FC0FD5F0D6E4CEFBE4CD0B
:100AE000FAE4CCF9A88222B800C1B90059BA002DA5
:100AF000EC8BF084CFCECDFCE5F0CBF97818EF2F5E
:100B0000FFEE33FEED33FDEC33FCEB33FB10D7038C
:100B1000994004EB99FB0FD8E5E4F9FA227818EF35
:100B20002FFFEE33FEED33FDEC33FCC933C910D794
:100B3000059BE99A4007EC9BFCE99AF90FD8E0E4A1
:100B4000C9FAE4CCFB2275F010EF2FFFEE33FEED77
:100B500033FDCC33CCC833C810D7079BEC9AE89947
:100B6000400AED9BFDEC9AFCE899F80FD5F0DAE429
:100B7000CDFBE4CCFAE4C8F922A42582F582E5F0A5
:100B80003583F58322D083D082F8E4937012740108
:100B900093700DA3A393F8740193F5828883E47393
:100BA0007402936860EFA3A3A380DFEF4E6012EF9F
:100BB00060010EEDBB010B89828A83F0A3DFFCDEAE
:100BC000FA2289F05007F709DFFCA9F022BBFEFCEE
:100BD000F309DFFCA9F022C290E52925E025E024F5
:100BE00066F8E4F608F6E52925E025E02468F8E44F
:100BF000F6E52925E025E022E528C454F0246CF52B
:100C000082E4341CF583E493FE7401932225E025ED
:100C1000E02466F8E4F608F6E52825E025E02468F7
:100C2000F8E4F6E52825E025E022F583E493FF5477
:100C300008FE131313541F24FF9202AB29AA2AA9FA
:100C40002BEF540775F002A4F58285F08322246609
:100C5000F8E6FC08E6FDECC4F854F0C8EDC4540F07
:100C600048540F222466F8E6FEEEC4540FFFE52830
:100C7000C454F02471F582E4341CF583E4932224F7
:100C800068F8E614131313541F2403F582E43400A8
:100C9000F58322E529252BF582E43528F583E0222A
:100CA000E528C454F0246FF582E4341C22A200E449
:100CB00033C433333354804526FFE527900074CF87
:100CC000F0A3EFF0E490007BF022F583E493540866
:100CD000131313541F24FF22E52E25E0248BF582E5
:100CE000E43400F583222466F8E6FC08E6FD229051
:100CF0000085E0FF90007AE06F22F583E493FC74B6
:100D0000019322C454F02474F582E4341CF583E486
:100D10009322C454F02477F582E4341CF583E493E1
:100D200022C454F0247BF582E4341CF583E493223E
:100D30002466F8A60608A607222401FFEFC454F093
:100D4000FE222466F9E7C4F854F0C809E7222533E7
:100D5000F582E43532F583E4932290007AE0900046
:100D600085F053DAFE2225E0247DF582E43400F597
:100D70008322A200920185262A85272B22C454F0C3
:100D80002472F582E4341C22C454F02475F582E404
:100D9000341C222466F8E6FEEEC4540F228E268F01
:100DA00027C3E527940AE52694005003020F3190EB
:100DB0000087E024FE6025147003020E3E240360C9
:100DC00003020F36C290AF27AE261219134003025A
:100DD0000F36120CAD9000877402F022120F3750BC
:100DE0003090007BE094044021D290E4900000F029
:100DF000900073F0C20490007CF090007AF09000B4
:100E000003F09000877403F08025E4900087F08061
:100E10001E900074E0547FFEA3E0FFD3E5279FE51A
:100E2000269E4005120CAD800690007BE004F090F9
:100E3000007BE0C394E05003020F36020F319000B4
:100E40007CE004F090007BE0FFA3E0D39F4003022E
:100E50000EDF7B007A007928AF27AE26121273408E
:100E600022900000E0FF120CDAE526F0A3E527F05F
:100E70008F28900000E004F0E0D394074005E49050
:100E80000087F030041DA200E433C43333335480B0
:100E9000FFE528C454F04FFF900073E0120C89EF77
:100EA000F08039900073E0FF120C89E0FEA200E4AC
:100EB0003333333354F84528FDEE4DF074032F12CD
:100EC0000C8B120CF2FF1218D5EFF0900073E004B7
:100ED000F0E0D394704005E4900087F0B204221251
:100EE0000F37504D1219905005E4900085F0120C08
:100EF000EF603A1219A07D207C037F017E0012185A
:100F000016120D5A900003E0FD900074E05480FF2B
:100F1000900000E0C454F04FFFED4F900003F090BC
:100F20000074E0547FF0900086E04480F0C290802E
:100F300000E4900087F022A2009201AF27AE2612B3
:100F4000002E228B298A2A892B8C2C8D2DE4F53DAD
:100F5000753E80F53BE53BC3952E5010E52D253BB6
:100F6000F582E4352C120FF3053B80E9E4F53BE50F
:100F70003BC395385057E53A253DF582E43539F5C0
:100F800083E0553E7019F53CE53CC39531502DE5A5
:100F900030253CF582E4352F120FF3053C80E9E45F
:100FA000F53CE53CC395345013E533253CF582E42C
:100FB0003532120C2A121022053C80E6E53EC3139E
:100FC000F53E7005053D753E80053B80A2E4F53B8E
:100FD000E53BC395375013E536253BF582E43535BF
:100FE000120C2A121022053B80E6C29090008774F2
:100FF00005F022F583E493FF5408FE131313541FE6
:1010000024FF9202AB29AA2AA92BEF540775F002FC
:10101000A4F58285F083120A73F54085F03F120033
:101020000322120A73F54085F03F120003228E2638
:101030008F278C288D298B2AD200C2018529828591
:101040002883E05488D394004003D38001C39201E5
:10105000E4F52BE52BC3952A505930010D120C9362
:10106000C4131313540124FF8002A20092028527A7
:1010700082852683C083C082120C93FFC45407D09C
:1010800082D0831210BC30010C120C93FF13131387
:10109000541F138002A2009202852782852683C0F6
:1010A00083C082120C935407D082D0831210BC05E7
:1010B0002B80A0C2909000877405F02275F0021278
:1010C0000B79E0F53FA3E0F540120003920022C047
:1010D000E0C0F0C083C082C0D075D000C000C001A5
:1010E000C002C003C004C005C006C007E598540391
:1010F000F545F45298E54530E0171219D59000DD1A
:1011000012173DEFF09000DDE004F0E0B44002E49F
:10111000F0E54530E12E9000E0E0D39400401A90D5
:1011200000DCE02446F8E6FF1219D29000DCE0046F
:10113000F09000E0E014F08002D2059000DCE0B412
:101140002002E4F0D007D006D005D004D003D002AE
:10115000D001D000D0D0D082D083D0F0D0E03212F5
:1011600019DB787FE4F6D8FD7581A10211A9020090
:1011700076E493A3F8E493A34003F68001F208DF3A
:10118000F48029E493A3F85407240CC8C333C4544F
:101190000F4420C8834004F456800146F6DFE48003
:1011A0000B010204081020408090136DE47E01932F
:1011B00060BCA3FF543F30E509541FFEE493A360D5
:1011C000010ECF54C025E060A840B8E493A3FAE430
:1011D00093A3F8E493A3C8C582C8CAC583CAF0A381
:1011E000C8C582C8CAC583CADFE9DEE780BEC0E0E1
:1011F000C0F0C083C082C0D075D000C000C001C0A4
:1012000002C003C004C005C006C007E5D85487F576
:1012100021F452D8E5F730E508E5F730E603121976
:10122000DD53F7DFE52130E708E5D930E003121997
:10123000DCE52130E008E5DA30E0031217E5E521CE
:1012400030E108E5DB30E0031219DEE52130E20889
:10125000E5DC30E0031219DFD007D006D005D0045A
:10126000D003D002D001D000D0D0D082D083D0F033
:10127000D0E0328E298F2A8B2B8A2C892DE4F52EF3
:10128000900000E0FFE52EC39F5064E52AAE297868
:1012900003CEC313CE13D8F9FDAC06E52AAE2978E8
:1012A00002CEC313CE13D8F92DFFEE3CCF2401CFCD
:1012B0003400AB07FA120CD8E0FEA3E0FFC39BEEAC
:1012C0009A50028004AE02AF03AA06AB07120CD8F4
:1012D000E0FCA3E0FDAF2AAE2912188F500DAB2B16
:1012E000AA2CA92DE52E1209E4D322052E8091C344
:1012F00022AE07E4F5261218B2900000E0041213A3
:1013000062900000E0FFE526C39F501712172FE000
:10131000547FFF1218B912172FA3E0FF1218B90556
:101320002680DE900074E0547FFF1218B99000749C
:10133000A3E0121362E4F526900073E0FFE526C3F4
:101340009F50177403252612170C0526E526541FF7
:1013500070E61219CF1219CB80DE7F551218B90230
:1013600019CFFF1218B91219CF1219CB224200E57A
:1013700000004200E100004200E700004200E300FC
:1013800000C183410086004100870041008A00417E
:10139000007900420001000042008800004200770E
:1013A0000000C104410073004100850041007A0043
:1013B0004100000048007D000000000000000041E6
:1013C0000076004100DD004100DF004100DB00410C
:1013D00000DC004100E0004100DA00C1054100DE10
:1013E0000041009900008F268C278D28EF120BFA00
:1013F000AA06F97BFFEF120CA2120CFAFDEF120CF9
:1014000070F52EEF120D7D120C048E2FF530EF12B9
:101410000D03F531EF120D88120C048E32F533EF07
:10142000120D12F534EFC454F02478F582E4341C24
:10143000120C048E35F536EFC454F0247AF582E4AC
:10144000341CF583E493F537EF120D21F538852729
:101450003985283A020F43900076E0FDC4540F24EA
:1014600001FBE433FAED540FF96B7001EA603DE9DA
:101470007010E0C4540F2401FDE433FCED64044C0F
:10148000602A900076E0C4540FFD540F120D66EEF2
:10149000F0A3EFF0ED04C454F049900076F0E0FFC3
:1014A000C4540FC394044004EF540FF022C0E0C0B2
:1014B00083C082C0D075D000C004C005C006C0077C
:1014C00053C87F9000E5E0FEA3E0FF4E700353C8D1
:1014D000FB9000E112170150099000E5E4F0A3F041
:1014E000800DC39000E6E09DF09000E5E09CF0D018
:1014F00007D006D005D004D0D0D082D083D0E0323F
:10150000C0E0C083C082C0D075D000C004C005C098
:1015100006C00753917F9000E7E0FEA3E0FF4E7006
:10152000035391FB9000E312170150099000E7E488
:10153000F0A3F0800DC39000E8E09DF09000E7E09C
:101540009CF0D007D006D005D004D0D0D082D08374
:10155000D0E032120A73FDACF0AF2BAE2A8F828E30
:1015600083AF05AE04121902AB07AA06D3EB94327F
:10157000EA940040067E007F328004AE02AF03AAE8
:1015800006AB07C3EB940AEA940050067E007F0A7C
:101590008004AE02AF03AA06AB07AF82AE83121877
:1015A0008F22AD07AC06ABDA900076E0FEC4540F94
:1015B000FFEE540FFEB50702C32253DAFE90007609
:1015C000E0FAEE120D66E0FFA3E08D828C83CFF08F
:1015D000A3EFF0EA54F0FF900076E0044FF0540FD0
:1015E000C394044004E054F0F08BDAD322AE05AD8E
:1015F00007E4FCFB7FAA1218B9AF051218B9EEC4B4
:1016000054F02439F582E4341EF583E493FFECC3EF
:101610009F500774082CFC0B80F4EB04FF1218B4E5
:10162000E4FCECC39B500974032C12170C0C80F2E1
:101630007F551218B90219CFAE07E4FDF52612182E
:10164000B2900001E0FEA3E0FF7C007D0A12171DAE
:10165000900001121725900077121718900077124A
:101660001725900088121718900088121725E4FD9E
:1016700074032D12170C0DBD03F67F551218B90215
:1016800019CF8F26900079E0F5277E007F3C7D0002
:101690007B007A007966120BAB7F0B1219D843DA04
:1016A000011200587D0A7C007F017E0012183F1253
:1016B000001DE4900087F0900086F0900099E526E8
:1016C000F0900079F0AF2722AB07AA06E4F9F87F83
:1016D000407E427D0FFC120AE7A804A905AA06ABCA
:1016E000077F207ED77D757C01120AE7C3E49FFF48
:1016F000E49EFE22AB07AA06E4F9F87FE87E03FD2C
:1017000022E0FCA3E0FDC3EF9DEE9C22F582E434D1
:1017100000F583E0FF0218B9E0FEA3E0FF1209F62E
:10172000EEFF0218B9A3E075F00AA4FF0218B9E5AC
:101730002625E0248BF582E43400F58322E0249A08
:10174000F582E43400F583229000DDE0FF9000DBB9
:10175000E0B507057E017F00229000DB12173DE017
:10176000FD7C009000DBE004F0E0B44002E4F09087
:1017700000DAE0FEEE4204E4F0AE04AF05228E4152
:101780008F428C438D441216C8121947E54424FA3F
:101790009000E8F0E54334FF9000E7F0AE41AF423F
:1017A0007C007D0A120A089000E3EEF0A3EFF043FC
:1017B0009104229000EDE0FCA3E0FDEC547FFEAF2D
:1017C0000522EC5480C4131313540124FF22A3E414
:1017D00093FE74019322E49000EBF0A3F0229000BA
:1017E00087E024FB22ADFBACFCAFD953D9BFE4F5B5
:1017F000FAF5F98FD9C3EC948050157F002093023D
:101800007F01EFC433333354804CFEEDFF02145795
:10181000E4900076F0228E378F388C398D3A12168C
:10182000F41216D512193B9000E5E539F0A3E53A1C
:10183000F09000E1E537F0A3E538F043C804228ECC
:10184000288F298C2A8D2B1216F41216D5121947BF
:101850009000E7E52AF0A3E52BF09000E3E528F0FF
:10186000A3E529F04391042212002A1219A71219A4
:10187000AE12195F1219C31218EC12197D121969F0
:101880001219731219531219B51219C70219BCC3D0
:10189000ED9BF582EC9AF583D3E5829FE5839E501C
:1018A0000FED2BFDEC3AFCD3EF9DEE9C5002800136
:1018B000C3227FAA1218B9AF06C2059000DFE0B4B8
:1018C0002002E4F09000DFE02446F8A607E004F0F0
:1018D000A3E004F0227E1DE4FDEF30E70625E06E74
:1018E000FF8004EF25E0FF0DBD08EE22AF8853888E
:1018F000AF758CA0758DCBEF5440FEEF54104E4267
:101900008822EF7802CEC313CE13D8F92401FFE466
:101910003EFE22C3EF941EEE94004003D38001C329
:101920002212192ED203900079E0FF021682AE0730
:101930001218B27F551218B90219CFAD07AC06ECD8
:10194000F5CBAF058FCA22AD07AC06ECF593AF051A
:101950008F9222C2DE75D90575F9FF759601227541
:10196000E34075E10175E20122E59154045391FBD6
:10197000429122758E5475892243885022E5C854BD
:101980000453C8FB42C82253984FEB4F4DF59822A1
:10199000E5C8C320E201D322E591C320E201D322AE
:1019A00053C8FB53C87F2275A41175D4CF2275A5E7
:1019B0004175D5772253F77F75DA302275E6907539
:1019C000A8B022E4F5A922439810223005FD22D2C6
:1019D00099228F9922AF99228F8C222222222222B1
:1019E00000230069043D0802080109000025004A9F
:1019F00001E0009603480A030801090004002600DC
:101A00006E012C03840A03080109000032006400FF
:101A1000960B86030A01080100280078012C02D5E4
:101A20000A0308010900002D005A040B02080009EE
:101A300001080015002A02F4020800090108001438
:101A4000002602B70208000901080023004105141E
:101A500002080009010800230046061D02080009CB
:101A600001080041030D00B6018E080108020803B9
:101A70000024004801E000960A0308010900003B29
:101A80000096002B05410A0308010900001E010011
:101A9000000E007303FF0801080308020802080390
:101AA00008040046008C1FA402080009010819E080
:101AB0000319E60219E80219EA020000001819ECFD
:101AC0000519F60219F80219FA0219FC012819FD84
:101AD000041A05021A07021A0902000000181A0B5C
:101AE000041A13011A14021A1602000000471A18E9
:101AF000041A20021A22021A2402000000181A26D0
:101B0000031A2C021A2E021A3002000000181A3290
:101B1000031A38021A3A021A3C020000000C1A3E5C
:101B2000031A44021A46021A48020000000C1A4A1C
:101B3000031A50021A52021A54020000000C1A56DC
:101B4000031A5C021A5E021A6002000000121A6296
:101B5000041A6A021A6C021A6E02000000281A7037
:101B6000041A78021A7A021A7C02000000281A7EEF
:101B7000041A86021A88021A8A02000000181A8CB7
:101B8000051A96021A98041A9C041AA002201AA296
:101B9000031AA8021AAA021AAC02000000140023B9
:101BA0000069043D0802080109000025004A01E01F
:101BB000009603480A0308010900040026006E018C
:101BC0002C03840A03080109000032006400960B0C
:101BD00086030A01080100280078012C02D50A03B7
:101BE00008010900002D005A040B02080009010831
:101BF0000015002A02F4020800090108001400265A
:101C000002B7020800090108002300410514020878
:101C10000009010800230046061D0208000901080A
:101C20000041030D00B6018E0801080208030024DC
:101C3000004801E000960A0308010900003B0096F5
:101C4000002B05410A0308010900001E0100000ED7
:101C5000007303FF080108030802080208030804D0
:101C60000046008C1FA40208000901081B9E031BEC
:101C7000A4021BA6021BA802000000181BAA051B39
:101C8000B4021BB6021BB8021BBA01281BBB041B03
:101C9000C3021BC5021BC702000000181BC9041B9E
:101CA000D1011BD2021BD402000000471BD6041B2B
:101CB000DE021BE0021BE202000000181BE4031B13
:101CC000EA021BEC021BEE02000000181BF0031BD3
:101CD000F6021BF8021BFA020000000C1BFC031C9E
:101CE00002021C04021C06020000000C1C08031C5B
:101CF0000E021C10021C12020000000C1C14031C1B
:101D00001A021C1C021C1E02000000121C20041CD3
:101D100028021C2A021C2C02000000281C2E041C75
:101D200036021C38021C3A02000000281C3C041C2D
:101D300044021C46021C4802000000181C4A051CF4
:101D400054021C56041C5A041C5E02201C60031C16
:101D500066021C68021C6A0200000014002300696D
:101D6000043D0802080109000025004A01E0009630
:101D700003480A0308010900040026006E012C0331
:101D8000840A03080109000032006400960B8603F0
:101D90000A01080100280078012C02D50A03080175
:101DA0000900002D005A040B020800090108001563
:101DB000002A02F40208000901080014002602B7F4
:101DC0000208000901080023004105140208000967
:101DD000010800230046061D020800090108004111
:101DE000030D00B6018E0801080208030024004814
:101DF00001E000960A0308010900003B0096002B51
:101E000005410A0308010900001E0100000E0073CD
:101E100003FF08010803080208020803080400463B
:101E2000008C1FA40208000901081D5C031D62024A
:101E30001D64021D6602000000181D68051D720267
:101E40001D74021D76021D7801281D79041D810272
:101E50001D83021D8502000000181D87041D8F01CF
:101E60001D90021D9202000000471D94041D9C025B
:101E70001D9E021DA002000000181DA2031DA80245
:101E80001DAA021DAC02000000181DAE031DB40205
:101E90001DB6021DB8020000000C1DBA031DC002D1
:101EA0001DC2021DC4020000000C1DC6031DCC0291
:101EB0001DCE021DD0020000000C1DD2031DD80251
:101EC0001DDA021DDC02000000121DDE041DE60208
:101ED0001DE8021DEA02000000281DEC041DF402AA
:101EE0001DF6021DF802000000281DFA041E020261
:101EF0001E04021E0602000000181E08051E120223
:101F00001E14041E18041E1C02201E1E031E240282
:0A1F10001E26021E28020000001425
:00000001FF
